{
  "transactions": [
    {
      "hash": "0x737ce5682d6a403455e39fbe2fb0d61a065853ecb463d3a346ba1c23ca3a11a9",
      "transactionType": "CALL",
      "contractName": null,
      "contractAddress": "0xf5b298825b38da0f5825e339f24f2e35a6a18757",
      "function": "getOldAndRequestNewGasPrice(uint64)",
      "arguments": [
        "4949039107694359620"
      ],
      "transaction": {
        "from": "0x3bf51792b901a5f81b6bd3321bf9c3862d23abb8",
        "to": "0xf5b298825b38da0f5825e339f24f2e35a6a18757",
        "gas": "0x3d7e9",
        "value": "0x6d023d38f594",
        "input": "0xb289f41c00000000000000000000000000000000000000000000000044ae84d8e9a37444",
        "nonce": "0x7",
        "chainId": "0x2105"
      },
      "additionalContracts": [],
      "isFixedGasLimit": false
    },
    {
      "hash": "0x48db7ed0480188ad00eb1ab7e0ed39e8a7aedd99520fb2a9f84526fc72c774e2",
      "transactionType": "CALL",
      "contractName": null,
      "contractAddress": "0xf5b298825b38da0f5825e339f24f2e35a6a18757",
      "function": "getOldAndRequestNewGasPrice(uint64)",
      "arguments": [
        "3734403246176062136"
      ],
      "transaction": {
        "from": "0x3bf51792b901a5f81b6bd3321bf9c3862d23abb8",
        "to": "0xf5b298825b38da0f5825e339f24f2e35a6a18757",
        "gas": "0x3d7e9",
        "value": "0x2d5dbeb8db6f",
        "input": "0xb289f41c00000000000000000000000000000000000000000000000033d343f77863cab8",
        "nonce": "0x8",
        "chainId": "0x2105"
      },
      "additionalContracts": [],
      "isFixedGasLimit": false
    }
  ],
  "receipts": [
    {
      "status": "0x1",
      "cumulativeGasUsed": "0x78dfdb",
      "logs": [
        {
          "address": "0x4200000000000000000000000000000000000006",
          "topics": [
            "0xe1fffcc4923d04b559f4d29a8bfc6cda04eb5b0d3c460751c2402c5c5cc9109c",
            "0x000000000000000000000000881e3a65b4d4a04dd529061dd0071cf975f58bcd"
          ],
          "data": "0x00000000000000000000000000000000000000000000000000006376208f18a7",
          "blockHash": "0x3f27a715042516a4ec3828554619d42261a2549f0168553b6693012ad235674e",
          "blockNumber": "0x1153967",
          "transactionHash": "0x737ce5682d6a403455e39fbe2fb0d61a065853ecb463d3a346ba1c23ca3a11a9",
          "transactionIndex": "0x3b",
          "logIndex": "0x91",
          "removed": false
        },
        {
          "address": "0x4200000000000000000000000000000000000006",
          "topics": [
            "0xddf252ad1be2c89b69c2b068fc378daa952ba7f163c4a11628f55a4df523b3ef",
            "0x000000000000000000000000881e3a65b4d4a04dd529061dd0071cf975f58bcd",
            "0x0000000000000000000000001e5ca70d1e7a1b26061125738a880bbea42feb21"
          ],
          "data": "0x00000000000000000000000000000000000000000000000000006376208f18a7",
          "blockHash": "0x3f27a715042516a4ec3828554619d42261a2549f0168553b6693012ad235674e",
          "blockNumber": "0x1153967",
          "transactionHash": "0x737ce5682d6a403455e39fbe2fb0d61a065853ecb463d3a346ba1c23ca3a11a9",
          "transactionIndex": "0x3b",
          "logIndex": "0x92",
          "removed": false
        },
        {
          "address": "0x1e5ca70d1e7a1b26061125738a880bbea42feb21",
          "topics": [
            "0xd0c3c799bf9e2639de44391e7f524d229b2b55f5b1ea94b2bf7da42f7243dddd"
          ],
          "data": "0x0000000000000000000000000000000000000000000000000000000000000020000000000000000000000000000000000000000000000000dda641cfe44aff82000000000000000000000000f5b298825b38da0f5825e339f24f2e35a6a187570000000000000000000000004ec5b3e934000c184e6c3dda2baeea5e9141ccc3000000000000000000000000000000000000000000000000000000000000cd0a0000000000000000000000000000000000000000000000000000000000030d4000000000000000000000000000000000000000000000000000000000000000000000000000000000000000000000000000000000000000000000000000000002000000000000000000000000420000000000000000000000000000000000000600000000000000000000000000000000000000000000000000006376208f18a700000000000000000000000000000000000000000000000000000000000001a000000000000000000000000000000000000000000000000000000000000001e000000000000000000000000000000000000000000000000000000000000002000726e005709947edcdaaf5bf138695c6e5be77506478595c1fbf85b627bd5f0a0000000000000000000000000000000000000000000000000000000000000004455259cb0000000000000000000000000000000000000000000000000000000000000000000000000000000000000000000000000000000000000000000000000000000000000000000000000000000000000000000000000000000000000000",
          "blockHash": "0x3f27a715042516a4ec3828554619d42261a2549f0168553b6693012ad235674e",
          "blockNumber": "0x1153967",
          "transactionHash": "0x737ce5682d6a403455e39fbe2fb0d61a065853ecb463d3a346ba1c23ca3a11a9",
          "transactionIndex": "0x3b",
          "logIndex": "0x93",
          "removed": false
        },
        {
          "address": "0xf5b298825b38da0f5825e339f24f2e35a6a18757",
          "topics": [
            "0xfe0c05d003ba88355b6dd6175a086c514d08b0f3706bf0dbc6fd9f9e767e8495"
          ],
          "data": "0x00000000000000000000000000000000000000000000000044ae84d8e9a374440726e005709947edcdaaf5bf138695c6e5be77506478595c1fbf85b627bd5f0a",
          "blockHash": "0x3f27a715042516a4ec3828554619d42261a2549f0168553b6693012ad235674e",
          "blockNumber": "0x1153967",
          "transactionHash": "0x737ce5682d6a403455e39fbe2fb0d61a065853ecb463d3a346ba1c23ca3a11a9",
          "transactionIndex": "0x3b",
          "logIndex": "0x94",
          "removed": false
        }
      ],
      "logsBloom": "0x0000000000000000002000000000000000012000000000000004000000000000000200000000000000000010000000000000000000000000000000000000000000000000000000000000000c000000000000000000000000000000008000000000800000000000000000000000000000000000000600000000000011000000000000000000000000000000000000000000000001002000020000000000000000000000000000000402800000000000000000000000000000000100000000000000000002000000000000000000000000000000000000000000000000000000000000000000000000000000001008000004000000000004400000000000000000",
      "type": "0x2",
      "transactionHash": "0x737ce5682d6a403455e39fbe2fb0d61a065853ecb463d3a346ba1c23ca3a11a9",
      "transactionIndex": "0x3b",
      "blockHash": "0x3f27a715042516a4ec3828554619d42261a2549f0168553b6693012ad235674e",
      "blockNumber": "0x1153967",
      "gasUsed": "0x2bbf5",
      "effectiveGasPrice": "0x1889fe5",
      "from": "0x3bf51792b901a5f81b6bd3321bf9c3862d23abb8",
      "to": "0xf5b298825b38da0f5825e339f24f2e35a6a18757",
      "contractAddress": null,
      "l1BaseFeeScalar": "0x8dd",
      "l1BlobBaseFee": "0x1",
      "l1BlobBaseFeeScalar": "0x101c12",
      "l1Fee": "0xcbcee8620",
      "l1GasPrice": "0x3823ab4cc",
      "l1GasUsed": "0x640"
    },
    {
      "status": "0x1",
      "cumulativeGasUsed": "0x7b809e",
      "logs": [
        {
          "address": "0x4200000000000000000000000000000000000006",
          "topics": [
            "0xe1fffcc4923d04b559f4d29a8bfc6cda04eb5b0d3c460751c2402c5c5cc9109c",
            "0x000000000000000000000000881e3a65b4d4a04dd529061dd0071cf975f58bcd"
          ],
          "data": "0x00000000000000000000000000000000000000000000000000002d5dbeb8db6f",
          "blockHash": "0x3f27a715042516a4ec3828554619d42261a2549f0168553b6693012ad235674e",
          "blockNumber": "0x1153967",
          "transactionHash": "0x48db7ed0480188ad00eb1ab7e0ed39e8a7aedd99520fb2a9f84526fc72c774e2",
          "transactionIndex": "0x3c",
          "logIndex": "0x95",
          "removed": false
        },
        {
          "address": "0x4200000000000000000000000000000000000006",
          "topics": [
            "0xddf252ad1be2c89b69c2b068fc378daa952ba7f163c4a11628f55a4df523b3ef",
            "0x000000000000000000000000881e3a65b4d4a04dd529061dd0071cf975f58bcd",
            "0x000000000000000000000000d952feacdd5919cc5e9454b53bf45d4e73dd6457"
          ],
          "data": "0x00000000000000000000000000000000000000000000000000002d5dbeb8db6f",
          "blockHash": "0x3f27a715042516a4ec3828554619d42261a2549f0168553b6693012ad235674e",
          "blockNumber": "0x1153967",
          "transactionHash": "0x48db7ed0480188ad00eb1ab7e0ed39e8a7aedd99520fb2a9f84526fc72c774e2",
          "transactionIndex": "0x3c",
          "logIndex": "0x96",
          "removed": false
        },
        {
          "address": "0xd952feacdd5919cc5e9454b53bf45d4e73dd6457",
          "topics": [
            "0xd0c3c799bf9e2639de44391e7f524d229b2b55f5b1ea94b2bf7da42f7243dddd"
          ],
          "data": "0x0000000000000000000000000000000000000000000000000000000000000020000000000000000000000000000000000000000000000000dda641cfe44aff82000000000000000000000000f5b298825b38da0f5825e339f24f2e35a6a187570000000000000000000000007fbc0146036526ab1c7b8bcd2ba8b03253646f310000000000000000000000000000000000000000000000000000000000006a460000000000000000000000000000000000000000000000000000000000030d4000000000000000000000000000000000000000000000000000000000000000000000000000000000000000000000000000000000000000000000000000000002000000000000000000000000420000000000000000000000000000000000000600000000000000000000000000000000000000000000000000002d5dbeb8db6f00000000000000000000000000000000000000000000000000000000000001a000000000000000000000000000000000000000000000000000000000000001e00000000000000000000000000000000000000000000000000000000000000200c7a1e92e4b471669aa854c7503f3b3c05ea5276f36d0d77516ecef4fa9a020810000000000000000000000000000000000000000000000000000000000000004455259cb0000000000000000000000000000000000000000000000000000000000000000000000000000000000000000000000000000000000000000000000000000000000000000000000000000000000000000000000000000000000000000",
          "blockHash": "0x3f27a715042516a4ec3828554619d42261a2549f0168553b6693012ad235674e",
          "blockNumber": "0x1153967",
          "transactionHash": "0x48db7ed0480188ad00eb1ab7e0ed39e8a7aedd99520fb2a9f84526fc72c774e2",
          "transactionIndex": "0x3c",
          "logIndex": "0x97",
          "removed": false
        },
        {
          "address": "0xf5b298825b38da0f5825e339f24f2e35a6a18757",
          "topics": [
            "0xfe0c05d003ba88355b6dd6175a086c514d08b0f3706bf0dbc6fd9f9e767e8495"
          ],
          "data": "0x00000000000000000000000000000000000000000000000033d343f77863cab8c7a1e92e4b471669aa854c7503f3b3c05ea5276f36d0d77516ecef4fa9a02081",
          "blockHash": "0x3f27a715042516a4ec3828554619d42261a2549f0168553b6693012ad235674e",
          "blockNumber": "0x1153967",
          "transactionHash": "0x48db7ed0480188ad00eb1ab7e0ed39e8a7aedd99520fb2a9f84526fc72c774e2",
          "transactionIndex": "0x3c",
          "logIndex": "0x98",
          "removed": false
        }
      ],
      "logsBloom": "0x00000000000000000000008000000000000100000000000000040000000000000002000000000000000000100000000200000000000000000000400000000000000000000000000000000008000000000000000000000000000000008000000000000000000000000100000000000000000000000400000000000011000000000000000000000000000000000000000000000001002000020000000000000000000000000000000402800000000000000000000000000000000100000000000000000002000000000000000000000000000000400000000000000000002000000000000000000000000000000008000004000000000004400000000000000000",
      "type": "0x2",
      "transactionHash": "0x48db7ed0480188ad00eb1ab7e0ed39e8a7aedd99520fb2a9f84526fc72c774e2",
      "transactionIndex": "0x3c",
      "blockHash": "0x3f27a715042516a4ec3828554619d42261a2549f0168553b6693012ad235674e",
      "blockNumber": "0x1153967",
      "gasUsed": "0x2a0c3",
      "effectiveGasPrice": "0x1889fe5",
      "from": "0x3bf51792b901a5f81b6bd3321bf9c3862d23abb8",
      "to": "0xf5b298825b38da0f5825e339f24f2e35a6a18757",
      "contractAddress": null,
      "l1BaseFeeScalar": "0x8dd",
      "l1BlobBaseFee": "0x1",
      "l1BlobBaseFeeScalar": "0x101c12",
      "l1Fee": "0xcbcee8620",
      "l1GasPrice": "0x3823ab4cc",
      "l1GasUsed": "0x640"
    }
  ],
  "libraries": [],
  "pending": [],
  "returns": {},
  "timestamp": 1723125729,
  "chain": 8453,
  "commit": "49ab14b"
}