{
  "transactions": [
    {
      "hash": "0x33f924c31bf2ab499169065c0afd239b712f214d6ad9ad84db3e39c02f64027f",
      "transactionType": "CALL",
      "contractName": null,
      "contractAddress": "0xf5b298825b38da0f5825e339f24f2e35a6a18757",
      "function": "setGasOracleAddress(uint64,address)",
      "arguments": [
        "4949039107694359620",
        "0xbD37ee8490384B9483D3eD02393A7B2264385Ecf"
      ],
      "transaction": {
        "from": "0x3bf51792b901a5f81b6bd3321bf9c3862d23abb8",
        "to": "0xf5b298825b38da0f5825e339f24f2e35a6a18757",
        "gas": "0x9bcf",
        "value": "0x0",
        "input": "0x30dd7e0500000000000000000000000000000000000000000000000044ae84d8e9a37444000000000000000000000000bd37ee8490384b9483d3ed02393a7b2264385ecf",
        "nonce": "0x1a",
        "chainId": "0x2105"
      },
      "additionalContracts": [],
      "isFixedGasLimit": false
    },
    {
      "hash": "0x6a1839b1663f12b4befc63669939a4bc8f35d68170cb27a01dada64bd23a9e1c",
      "transactionType": "CALL",
      "contractName": null,
      "contractAddress": "0xf5b298825b38da0f5825e339f24f2e35a6a18757",
      "function": "setGasOracleAddress(uint64,address)",
      "arguments": [
        "3734403246176062136",
        "0x993F0fE959528080bD122e077f24661a340C255C"
      ],
      "transaction": {
        "from": "0x3bf51792b901a5f81b6bd3321bf9c3862d23abb8",
        "to": "0xf5b298825b38da0f5825e339f24f2e35a6a18757",
        "gas": "0x9bcf",
        "value": "0x0",
        "input": "0x30dd7e0500000000000000000000000000000000000000000000000033d343f77863cab8000000000000000000000000993f0fe959528080bd122e077f24661a340c255c",
        "nonce": "0x1b",
        "chainId": "0x2105"
      },
      "additionalContracts": [],
      "isFixedGasLimit": false
    },
    {
      "hash": "0x503a6147722d13dd5f09ccb26d54d3bc5b9e5d3c66242ed0e6f745272c2f025c",
      "transactionType": "CALL",
      "contractName": null,
      "contractAddress": "0xf5b298825b38da0f5825e339f24f2e35a6a18757",
      "function": "getOldAndRequestNewGasPrice(uint64)",
      "arguments": [
        "4949039107694359620"
      ],
      "transaction": {
        "from": "0x3bf51792b901a5f81b6bd3321bf9c3862d23abb8",
        "to": "0xf5b298825b38da0f5825e339f24f2e35a6a18757",
        "gas": "0x3d7e9",
        "value": "0x2df6cdda9f6a",
        "input": "0xb289f41c00000000000000000000000000000000000000000000000044ae84d8e9a37444",
        "nonce": "0x1c",
        "chainId": "0x2105"
      },
      "additionalContracts": [],
      "isFixedGasLimit": false
    },
    {
      "hash": "0x72562916b269ddcfc10f5f75cfe2bd306393bda2e82a342a2293bdf246c40cd8",
      "transactionType": "CALL",
      "contractName": null,
      "contractAddress": "0xf5b298825b38da0f5825e339f24f2e35a6a18757",
      "function": "getOldAndRequestNewGasPrice(uint64)",
      "arguments": [
        "3734403246176062136"
      ],
      "transaction": {
        "from": "0x3bf51792b901a5f81b6bd3321bf9c3862d23abb8",
        "to": "0xf5b298825b38da0f5825e339f24f2e35a6a18757",
        "gas": "0x3d7e9",
        "value": "0x264e0a2eb2c3",
        "input": "0xb289f41c00000000000000000000000000000000000000000000000033d343f77863cab8",
        "nonce": "0x1d",
        "chainId": "0x2105"
      },
      "additionalContracts": [],
      "isFixedGasLimit": false
    }
  ],
  "receipts": [
    {
      "status": "0x1",
      "cumulativeGasUsed": "0xc768eb",
      "logs": [],
      "logsBloom": "0x00000000000000000000000000000000000000000000000000000000000000000000000000000000000000000000000000000000000000000000000000000000000000000000000000000000000000000000000000000000000000000000000000000000000000000000000000000000000000000000000000000000000000000000000000000000000000000000000000000000000000000000000000000000000000000000000000000000000000000000000000000000000000000000000000000000000000000000000000000000000000000000000000000000000000000000000000000000000000000000000000000000000000000000000000000000",
      "type": "0x2",
      "transactionHash": "0x33f924c31bf2ab499169065c0afd239b712f214d6ad9ad84db3e39c02f64027f",
      "transactionIndex": "0x4c",
      "blockHash": "0x9fab24f2e0550695bb06f54aa02b3123e4e28e28fdb7dfdc180374547baa2775",
      "blockNumber": "0x115596d",
      "gasUsed": "0x6a8a",
      "effectiveGasPrice": "0x9bab96",
      "from": "0x3bf51792b901a5f81b6bd3321bf9c3862d23abb8",
      "to": "0xf5b298825b38da0f5825e339f24f2e35a6a18757",
      "contractAddress": null,
      "l1BaseFeeScalar": "0x8dd",
      "l1BlobBaseFee": "0x1",
      "l1BlobBaseFeeScalar": "0x101c12",
      "l1Fee": "0x42a784751",
      "l1GasPrice": "0x125c2cf0c",
      "l1GasUsed": "0x640"
    },
    {
      "status": "0x1",
      "cumulativeGasUsed": "0xcc96ea",
      "logs": [],
      "logsBloom": "0x00000000000000000000000000000000000000000000000000000000000000000000000000000000000000000000000000000000000000000000000000000000000000000000000000000000000000000000000000000000000000000000000000000000000000000000000000000000000000000000000000000000000000000000000000000000000000000000000000000000000000000000000000000000000000000000000000000000000000000000000000000000000000000000000000000000000000000000000000000000000000000000000000000000000000000000000000000000000000000000000000000000000000000000000000000000",
      "type": "0x2",
      "transactionHash": "0x6a1839b1663f12b4befc63669939a4bc8f35d68170cb27a01dada64bd23a9e1c",
      "transactionIndex": "0x4e",
      "blockHash": "0x9fab24f2e0550695bb06f54aa02b3123e4e28e28fdb7dfdc180374547baa2775",
      "blockNumber": "0x115596d",
      "gasUsed": "0x6a8a",
      "effectiveGasPrice": "0x9bab96",
      "from": "0x3bf51792b901a5f81b6bd3321bf9c3862d23abb8",
      "to": "0xf5b298825b38da0f5825e339f24f2e35a6a18757",
      "contractAddress": null,
      "l1BaseFeeScalar": "0x8dd",
      "l1BlobBaseFee": "0x1",
      "l1BlobBaseFeeScalar": "0x101c12",
      "l1Fee": "0x42a784751",
      "l1GasPrice": "0x125c2cf0c",
      "l1GasUsed": "0x640"
    },
    {
      "status": "0x1",
      "cumulativeGasUsed": "0xcf37ad",
      "logs": [
        {
          "address": "0x4200000000000000000000000000000000000006",
          "topics": [
            "0xe1fffcc4923d04b559f4d29a8bfc6cda04eb5b0d3c460751c2402c5c5cc9109c",
            "0x000000000000000000000000881e3a65b4d4a04dd529061dd0071cf975f58bcd"
          ],
          "data": "0x00000000000000000000000000000000000000000000000000002df6cdda9f6a",
          "blockHash": "0x9fab24f2e0550695bb06f54aa02b3123e4e28e28fdb7dfdc180374547baa2775",
          "blockNumber": "0x115596d",
          "transactionHash": "0x503a6147722d13dd5f09ccb26d54d3bc5b9e5d3c66242ed0e6f745272c2f025c",
          "transactionIndex": "0x4f",
          "logIndex": "0xfa",
          "removed": false
        },
        {
          "address": "0x4200000000000000000000000000000000000006",
          "topics": [
            "0xddf252ad1be2c89b69c2b068fc378daa952ba7f163c4a11628f55a4df523b3ef",
            "0x000000000000000000000000881e3a65b4d4a04dd529061dd0071cf975f58bcd",
            "0x0000000000000000000000001e5ca70d1e7a1b26061125738a880bbea42feb21"
          ],
          "data": "0x00000000000000000000000000000000000000000000000000002df6cdda9f6a",
          "blockHash": "0x9fab24f2e0550695bb06f54aa02b3123e4e28e28fdb7dfdc180374547baa2775",
          "blockNumber": "0x115596d",
          "transactionHash": "0x503a6147722d13dd5f09ccb26d54d3bc5b9e5d3c66242ed0e6f745272c2f025c",
          "transactionIndex": "0x4f",
          "logIndex": "0xfb",
          "removed": false
        },
        {
          "address": "0x1e5ca70d1e7a1b26061125738a880bbea42feb21",
          "topics": [
            "0xd0c3c799bf9e2639de44391e7f524d229b2b55f5b1ea94b2bf7da42f7243dddd"
          ],
          "data": "0x0000000000000000000000000000000000000000000000000000000000000020000000000000000000000000000000000000000000000000dda641cfe44aff82000000000000000000000000f5b298825b38da0f5825e339f24f2e35a6a18757000000000000000000000000bd37ee8490384b9483d3ed02393a7b2264385ecf000000000000000000000000000000000000000000000000000000000000cd2c0000000000000000000000000000000000000000000000000000000000030d4000000000000000000000000000000000000000000000000000000000000000000000000000000000000000000000000000000000000000000000000000000007000000000000000000000000420000000000000000000000000000000000000600000000000000000000000000000000000000000000000000002df6cdda9f6a00000000000000000000000000000000000000000000000000000000000001a000000000000000000000000000000000000000000000000000000000000001e00000000000000000000000000000000000000000000000000000000000000200868c60466fa6d29b2852d439b7d521125ec0547531be322e8572d0f312aced130000000000000000000000000000000000000000000000000000000000000004455259cb0000000000000000000000000000000000000000000000000000000000000000000000000000000000000000000000000000000000000000000000000000000000000000000000000000000000000000000000000000000000000000",
          "blockHash": "0x9fab24f2e0550695bb06f54aa02b3123e4e28e28fdb7dfdc180374547baa2775",
          "blockNumber": "0x115596d",
          "transactionHash": "0x503a6147722d13dd5f09ccb26d54d3bc5b9e5d3c66242ed0e6f745272c2f025c",
          "transactionIndex": "0x4f",
          "logIndex": "0xfc",
          "removed": false
        },
        {
          "address": "0xf5b298825b38da0f5825e339f24f2e35a6a18757",
          "topics": [
            "0xfe0c05d003ba88355b6dd6175a086c514d08b0f3706bf0dbc6fd9f9e767e8495"
          ],
          "data": "0x00000000000000000000000000000000000000000000000044ae84d8e9a37444868c60466fa6d29b2852d439b7d521125ec0547531be322e8572d0f312aced13",
          "blockHash": "0x9fab24f2e0550695bb06f54aa02b3123e4e28e28fdb7dfdc180374547baa2775",
          "blockNumber": "0x115596d",
          "transactionHash": "0x503a6147722d13dd5f09ccb26d54d3bc5b9e5d3c66242ed0e6f745272c2f025c",
          "transactionIndex": "0x4f",
          "logIndex": "0xfd",
          "removed": false
        }
      ],
      "logsBloom": "0x0000000000000000002000000000000000012000000000000004000000000000000200000000000000000010000000000000000000000000000000000000000000000000000000000000000c000000000000000000000000000000008000000000800000000000000000000000000000000000000600000000000011000000000000000000000000000000000000000000000001002000020000000000000000000000000000000402800000000000000000000000000000000100000000000000000002000000000000000000000000000000000000000000000000000000000000000000000000000000001008000004000000000004400000000000000000",
      "type": "0x2",
      "transactionHash": "0x503a6147722d13dd5f09ccb26d54d3bc5b9e5d3c66242ed0e6f745272c2f025c",
      "transactionIndex": "0x4f",
      "blockHash": "0x9fab24f2e0550695bb06f54aa02b3123e4e28e28fdb7dfdc180374547baa2775",
      "blockNumber": "0x115596d",
      "gasUsed": "0x2a0c3",
      "effectiveGasPrice": "0x9bab96",
      "from": "0x3bf51792b901a5f81b6bd3321bf9c3862d23abb8",
      "to": "0xf5b298825b38da0f5825e339f24f2e35a6a18757",
      "contractAddress": null,
      "l1BaseFeeScalar": "0x8dd",
      "l1BlobBaseFee": "0x1",
      "l1BlobBaseFeeScalar": "0x101c12",
      "l1Fee": "0x42a784751",
      "l1GasPrice": "0x125c2cf0c",
      "l1GasUsed": "0x640"
    },
    {
      "status": "0x1",
      "cumulativeGasUsed": "0xd1d870",
      "logs": [
        {
          "address": "0x4200000000000000000000000000000000000006",
          "topics": [
            "0xe1fffcc4923d04b559f4d29a8bfc6cda04eb5b0d3c460751c2402c5c5cc9109c",
            "0x000000000000000000000000881e3a65b4d4a04dd529061dd0071cf975f58bcd"
          ],
          "data": "0x0000000000000000000000000000000000000000000000000000264e0a2eb2c3",
          "blockHash": "0x9fab24f2e0550695bb06f54aa02b3123e4e28e28fdb7dfdc180374547baa2775",
          "blockNumber": "0x115596d",
          "transactionHash": "0x72562916b269ddcfc10f5f75cfe2bd306393bda2e82a342a2293bdf246c40cd8",
          "transactionIndex": "0x50",
          "logIndex": "0xfe",
          "removed": false
        },
        {
          "address": "0x4200000000000000000000000000000000000006",
          "topics": [
            "0xddf252ad1be2c89b69c2b068fc378daa952ba7f163c4a11628f55a4df523b3ef",
            "0x000000000000000000000000881e3a65b4d4a04dd529061dd0071cf975f58bcd",
            "0x000000000000000000000000d952feacdd5919cc5e9454b53bf45d4e73dd6457"
          ],
          "data": "0x0000000000000000000000000000000000000000000000000000264e0a2eb2c3",
          "blockHash": "0x9fab24f2e0550695bb06f54aa02b3123e4e28e28fdb7dfdc180374547baa2775",
          "blockNumber": "0x115596d",
          "transactionHash": "0x72562916b269ddcfc10f5f75cfe2bd306393bda2e82a342a2293bdf246c40cd8",
          "transactionIndex": "0x50",
          "logIndex": "0xff",
          "removed": false
        },
        {
          "address": "0xd952feacdd5919cc5e9454b53bf45d4e73dd6457",
          "topics": [
            "0xd0c3c799bf9e2639de44391e7f524d229b2b55f5b1ea94b2bf7da42f7243dddd"
          ],
          "data": "0x0000000000000000000000000000000000000000000000000000000000000020000000000000000000000000000000000000000000000000dda641cfe44aff82000000000000000000000000f5b298825b38da0f5825e339f24f2e35a6a18757000000000000000000000000993f0fe959528080bd122e077f24661a340c255c0000000000000000000000000000000000000000000000000000000000006a670000000000000000000000000000000000000000000000000000000000030d400000000000000000000000000000000000000000000000000000000000000000000000000000000000000000000000000000000000000000000000000000000600000000000000000000000042000000000000000000000000000000000000060000000000000000000000000000000000000000000000000000264e0a2eb2c300000000000000000000000000000000000000000000000000000000000001a000000000000000000000000000000000000000000000000000000000000001e000000000000000000000000000000000000000000000000000000000000002002a9574d3c4033cb8e2f3d2d71acf789f27ee6d52fc0be34b70d694829df6d2650000000000000000000000000000000000000000000000000000000000000004455259cb0000000000000000000000000000000000000000000000000000000000000000000000000000000000000000000000000000000000000000000000000000000000000000000000000000000000000000000000000000000000000000",
          "blockHash": "0x9fab24f2e0550695bb06f54aa02b3123e4e28e28fdb7dfdc180374547baa2775",
          "blockNumber": "0x115596d",
          "transactionHash": "0x72562916b269ddcfc10f5f75cfe2bd306393bda2e82a342a2293bdf246c40cd8",
          "transactionIndex": "0x50",
          "logIndex": "0x100",
          "removed": false
        },
        {
          "address": "0xf5b298825b38da0f5825e339f24f2e35a6a18757",
          "topics": [
            "0xfe0c05d003ba88355b6dd6175a086c514d08b0f3706bf0dbc6fd9f9e767e8495"
          ],
          "data": "0x00000000000000000000000000000000000000000000000033d343f77863cab82a9574d3c4033cb8e2f3d2d71acf789f27ee6d52fc0be34b70d694829df6d265",
          "blockHash": "0x9fab24f2e0550695bb06f54aa02b3123e4e28e28fdb7dfdc180374547baa2775",
          "blockNumber": "0x115596d",
          "transactionHash": "0x72562916b269ddcfc10f5f75cfe2bd306393bda2e82a342a2293bdf246c40cd8",
          "transactionIndex": "0x50",
          "logIndex": "0x101",
          "removed": false
        }
      ],
      "logsBloom": "0x00000000000000000000008000000000000100000000000000040000000000000002000000000000000000100000000200000000000000000000400000000000000000000000000000000008000000000000000000000000000000008000000000000000000000000100000000000000000000000400000000000011000000000000000000000000000000000000000000000001002000020000000000000000000000000000000402800000000000000000000000000000000100000000000000000002000000000000000000000000000000400000000000000000002000000000000000000000000000000008000004000000000004400000000000000000",
      "type": "0x2",
      "transactionHash": "0x72562916b269ddcfc10f5f75cfe2bd306393bda2e82a342a2293bdf246c40cd8",
      "transactionIndex": "0x50",
      "blockHash": "0x9fab24f2e0550695bb06f54aa02b3123e4e28e28fdb7dfdc180374547baa2775",
      "blockNumber": "0x115596d",
      "gasUsed": "0x2a0c3",
      "effectiveGasPrice": "0x9bab96",
      "from": "0x3bf51792b901a5f81b6bd3321bf9c3862d23abb8",
      "to": "0xf5b298825b38da0f5825e339f24f2e35a6a18757",
      "contractAddress": null,
      "l1BaseFeeScalar": "0x8dd",
      "l1BlobBaseFee": "0x1",
      "l1BlobBaseFeeScalar": "0x101c12",
      "l1Fee": "0x42a784751",
      "l1GasPrice": "0x125c2cf0c",
      "l1GasUsed": "0x640"
    }
  ],
  "libraries": [],
  "pending": [],
  "returns": {},
  "timestamp": 1723142084,
  "chain": 8453,
  "commit": "932bc7f"
}