{
  "transactions": [
    {
      "hash": "0x3b0c6b6a623cd13226f676ad40f754789c366a76f760eb74a7718b4ec2249a62",
      "transactionType": "CALL",
      "contractName": null,
      "contractAddress": "0xf5b298825b38da0f5825e339f24f2e35a6a18757",
      "function": "getOldAndRequestNewGasPrice(uint64)",
      "arguments": [
        "4949039107694359620"
      ],
      "transaction": {
        "from": "0x3bf51792b901a5f81b6bd3321bf9c3862d23abb8",
        "to": "0xf5b298825b38da0f5825e339f24f2e35a6a18757",
        "gas": "0x3d7e9",
        "value": "0x6376208f18a7",
        "input": "0xb289f41c00000000000000000000000000000000000000000000000044ae84d8e9a37444",
        "nonce": "0x9",
        "chainId": "0x2105"
      },
      "additionalContracts": [],
      "isFixedGasLimit": false
    }
  ],
  "receipts": [
    {
      "status": "0x1",
      "cumulativeGasUsed": "0x11cddb2",
      "logs": [
        {
          "address": "0x4200000000000000000000000000000000000006",
          "topics": [
            "0xe1fffcc4923d04b559f4d29a8bfc6cda04eb5b0d3c460751c2402c5c5cc9109c",
            "0x000000000000000000000000881e3a65b4d4a04dd529061dd0071cf975f58bcd"
          ],
          "data": "0x00000000000000000000000000000000000000000000000000006376208f18a7",
          "blockHash": "0x33163b52e0b25dab6b934b518a2b879e8a8ddaac955b0561ac6216b4111a58b1",
          "blockNumber": "0x115399f",
          "transactionHash": "0x3b0c6b6a623cd13226f676ad40f754789c366a76f760eb74a7718b4ec2249a62",
          "transactionIndex": "0x39",
          "logIndex": "0xa1",
          "removed": false
        },
        {
          "address": "0x4200000000000000000000000000000000000006",
          "topics": [
            "0xddf252ad1be2c89b69c2b068fc378daa952ba7f163c4a11628f55a4df523b3ef",
            "0x000000000000000000000000881e3a65b4d4a04dd529061dd0071cf975f58bcd",
            "0x0000000000000000000000001e5ca70d1e7a1b26061125738a880bbea42feb21"
          ],
          "data": "0x00000000000000000000000000000000000000000000000000006376208f18a7",
          "blockHash": "0x33163b52e0b25dab6b934b518a2b879e8a8ddaac955b0561ac6216b4111a58b1",
          "blockNumber": "0x115399f",
          "transactionHash": "0x3b0c6b6a623cd13226f676ad40f754789c366a76f760eb74a7718b4ec2249a62",
          "transactionIndex": "0x39",
          "logIndex": "0xa2",
          "removed": false
        },
        {
          "address": "0x1e5ca70d1e7a1b26061125738a880bbea42feb21",
          "topics": [
            "0xd0c3c799bf9e2639de44391e7f524d229b2b55f5b1ea94b2bf7da42f7243dddd"
          ],
          "data": "0x0000000000000000000000000000000000000000000000000000000000000020000000000000000000000000000000000000000000000000dda641cfe44aff82000000000000000000000000f5b298825b38da0f5825e339f24f2e35a6a187570000000000000000000000004ec5b3e934000c184e6c3dda2baeea5e9141ccc3000000000000000000000000000000000000000000000000000000000000cd0b0000000000000000000000000000000000000000000000000000000000030d4000000000000000000000000000000000000000000000000000000000000000000000000000000000000000000000000000000000000000000000000000000003000000000000000000000000420000000000000000000000000000000000000600000000000000000000000000000000000000000000000000006376208f18a700000000000000000000000000000000000000000000000000000000000001a000000000000000000000000000000000000000000000000000000000000001e000000000000000000000000000000000000000000000000000000000000002004cd6f6d9ae6fc0ec02fee2d158b7e89c94cc3359faee54cf14c7cc50d5c77f190000000000000000000000000000000000000000000000000000000000000004455259cb0000000000000000000000000000000000000000000000000000000000000000000000000000000000000000000000000000000000000000000000000000000000000000000000000000000000000000000000000000000000000000",
          "blockHash": "0x33163b52e0b25dab6b934b518a2b879e8a8ddaac955b0561ac6216b4111a58b1",
          "blockNumber": "0x115399f",
          "transactionHash": "0x3b0c6b6a623cd13226f676ad40f754789c366a76f760eb74a7718b4ec2249a62",
          "transactionIndex": "0x39",
          "logIndex": "0xa3",
          "removed": false
        },
        {
          "address": "0xf5b298825b38da0f5825e339f24f2e35a6a18757",
          "topics": [
            "0xfe0c05d003ba88355b6dd6175a086c514d08b0f3706bf0dbc6fd9f9e767e8495"
          ],
          "data": "0x00000000000000000000000000000000000000000000000044ae84d8e9a374444cd6f6d9ae6fc0ec02fee2d158b7e89c94cc3359faee54cf14c7cc50d5c77f19",
          "blockHash": "0x33163b52e0b25dab6b934b518a2b879e8a8ddaac955b0561ac6216b4111a58b1",
          "blockNumber": "0x115399f",
          "transactionHash": "0x3b0c6b6a623cd13226f676ad40f754789c366a76f760eb74a7718b4ec2249a62",
          "transactionIndex": "0x39",
          "logIndex": "0xa4",
          "removed": false
        }
      ],
      "logsBloom": "0x0000000000000000002000000000000000012000000000000004000000000000000200000000000000000010000000000000000000000000000000000000000000000000000000000000000c000000000000000000000000000000008000000000800000000000000000000000000000000000000600000000000011000000000000000000000000000000000000000000000001002000020000000000000000000000000000000402800000000000000000000000000000000100000000000000000002000000000000000000000000000000000000000000000000000000000000000000000000000000001008000004000000000004400000000000000000",
      "type": "0x2",
      "transactionHash": "0x3b0c6b6a623cd13226f676ad40f754789c366a76f760eb74a7718b4ec2249a62",
      "transactionIndex": "0x39",
      "blockHash": "0x33163b52e0b25dab6b934b518a2b879e8a8ddaac955b0561ac6216b4111a58b1",
      "blockNumber": "0x115399f",
      "gasUsed": "0x2a0c3",
      "effectiveGasPrice": "0x1846001",
      "from": "0x3bf51792b901a5f81b6bd3321bf9c3862d23abb8",
      "to": "0xf5b298825b38da0f5825e339f24f2e35a6a18757",
      "contractAddress": null,
      "l1BaseFeeScalar": "0x8dd",
      "l1BlobBaseFee": "0x1",
      "l1BlobBaseFeeScalar": "0x101c12",
      "l1Fee": "0xb83cef0e9",
      "l1GasPrice": "0x32bfa9c0e",
      "l1GasUsed": "0x640"
    }
  ],
  "libraries": [],
  "pending": [],
  "returns": {},
  "timestamp": 1723125799,
  "chain": 8453,
  "commit": "49ab14b"
}