{
  "transactions": [
    {
      "hash": "0x6a4ffd6c70e0dd465a171beb9ab3d01ffd88caae5030325039972816bd3ace3c",
      "transactionType": "CALL",
      "contractName": null,
      "contractAddress": "0xf5b298825b38da0f5825e339f24f2e35a6a18757",
      "function": "setGasOracleAddress(uint64,address)",
      "arguments": [
        "4949039107694359620",
        "0x3877BbA809b6D6e04fF53CFD6A08BEa93c980949"
      ],
      "transaction": {
        "from": "0x3bf51792b901a5f81b6bd3321bf9c3862d23abb8",
        "to": "0xf5b298825b38da0f5825e339f24f2e35a6a18757",
        "gas": "0x9bcf",
        "value": "0x0",
        "input": "0x30dd7e0500000000000000000000000000000000000000000000000044ae84d8e9a374440000000000000000000000003877bba809b6d6e04ff53cfd6a08bea93c980949",
        "nonce": "0xb",
        "chainId": "0x2105"
      },
      "additionalContracts": [],
      "isFixedGasLimit": false
    },
    {
      "hash": "0xc943e6d1d9f1b56551ce75c8b5ba5283bf8e63851406b0b58f67ce78fad25d0e",
      "transactionType": "CALL",
      "contractName": null,
      "contractAddress": "0xf5b298825b38da0f5825e339f24f2e35a6a18757",
      "function": "setGasOracleAddress(uint64,address)",
      "arguments": [
        "3734403246176062136",
        "0xD18A967cB98e2f249c156D6cdA1Ae6D675a46a4F"
      ],
      "transaction": {
        "from": "0x3bf51792b901a5f81b6bd3321bf9c3862d23abb8",
        "to": "0xf5b298825b38da0f5825e339f24f2e35a6a18757",
        "gas": "0x9bcf",
        "value": "0x0",
        "input": "0x30dd7e0500000000000000000000000000000000000000000000000033d343f77863cab8000000000000000000000000d18a967cb98e2f249c156d6cda1ae6d675a46a4f",
        "nonce": "0xc",
        "chainId": "0x2105"
      },
      "additionalContracts": [],
      "isFixedGasLimit": false
    },
    {
      "hash": "0x46996118c8a594ed49f40564e4c73b1f018b4662badb39d0397bd190157dee7a",
      "transactionType": "CALL",
      "contractName": null,
      "contractAddress": "0xf5b298825b38da0f5825e339f24f2e35a6a18757",
      "function": "getOldAndRequestNewGasPrice(uint64)",
      "arguments": [
        "4949039107694359620"
      ],
      "transaction": {
        "from": "0x3bf51792b901a5f81b6bd3321bf9c3862d23abb8",
        "to": "0xf5b298825b38da0f5825e339f24f2e35a6a18757",
        "gas": "0x3d7e9",
        "value": "0x351eb580e5af",
        "input": "0xb289f41c00000000000000000000000000000000000000000000000044ae84d8e9a37444",
        "nonce": "0xd",
        "chainId": "0x2105"
      },
      "additionalContracts": [],
      "isFixedGasLimit": false
    },
    {
      "hash": "0xf266fad3a48ae5c7819069879d4b7c610817dafa0dd618cd6d05bce6f734037e",
      "transactionType": "CALL",
      "contractName": null,
      "contractAddress": "0xf5b298825b38da0f5825e339f24f2e35a6a18757",
      "function": "getOldAndRequestNewGasPrice(uint64)",
      "arguments": [
        "3734403246176062136"
      ],
      "transaction": {
        "from": "0x3bf51792b901a5f81b6bd3321bf9c3862d23abb8",
        "to": "0xf5b298825b38da0f5825e339f24f2e35a6a18757",
        "gas": "0x3d7e9",
        "value": "0x322c5be4893b",
        "input": "0xb289f41c00000000000000000000000000000000000000000000000033d343f77863cab8",
        "nonce": "0xe",
        "chainId": "0x2105"
      },
      "additionalContracts": [],
      "isFixedGasLimit": false
    }
  ],
  "receipts": [
    {
      "status": "0x1",
      "cumulativeGasUsed": "0x17b2fb9",
      "logs": [],
      "logsBloom": "0x00000000000000000000000000000000000000000000000000000000000000000000000000000000000000000000000000000000000000000000000000000000000000000000000000000000000000000000000000000000000000000000000000000000000000000000000000000000000000000000000000000000000000000000000000000000000000000000000000000000000000000000000000000000000000000000000000000000000000000000000000000000000000000000000000000000000000000000000000000000000000000000000000000000000000000000000000000000000000000000000000000000000000000000000000000000",
      "type": "0x2",
      "transactionHash": "0x6a4ffd6c70e0dd465a171beb9ab3d01ffd88caae5030325039972816bd3ace3c",
      "transactionIndex": "0x7d",
      "blockHash": "0x70f190fb25dc59d472743f2d2b07448367413d7b3dc26f6e5db1e44139a1a906",
      "blockNumber": "0x11545ec",
      "gasUsed": "0x6a8a",
      "effectiveGasPrice": "0x11cb7d7",
      "from": "0x3bf51792b901a5f81b6bd3321bf9c3862d23abb8",
      "to": "0xf5b298825b38da0f5825e339f24f2e35a6a18757",
      "contractAddress": null,
      "l1BaseFeeScalar": "0x8dd",
      "l1BlobBaseFee": "0x1",
      "l1BlobBaseFeeScalar": "0x101c12",
      "l1Fee": "0x9a64f5ada",
      "l1GasPrice": "0x2a87380b6",
      "l1GasUsed": "0x640"
    },
    {
      "status": "0x1",
      "cumulativeGasUsed": "0x17b9a43",
      "logs": [],
      "logsBloom": "0x00000000000000000000000000000000000000000000000000000000000000000000000000000000000000000000000000000000000000000000000000000000000000000000000000000000000000000000000000000000000000000000000000000000000000000000000000000000000000000000000000000000000000000000000000000000000000000000000000000000000000000000000000000000000000000000000000000000000000000000000000000000000000000000000000000000000000000000000000000000000000000000000000000000000000000000000000000000000000000000000000000000000000000000000000000000",
      "type": "0x2",
      "transactionHash": "0xc943e6d1d9f1b56551ce75c8b5ba5283bf8e63851406b0b58f67ce78fad25d0e",
      "transactionIndex": "0x7e",
      "blockHash": "0x70f190fb25dc59d472743f2d2b07448367413d7b3dc26f6e5db1e44139a1a906",
      "blockNumber": "0x11545ec",
      "gasUsed": "0x6a8a",
      "effectiveGasPrice": "0x11cb7d7",
      "from": "0x3bf51792b901a5f81b6bd3321bf9c3862d23abb8",
      "to": "0xf5b298825b38da0f5825e339f24f2e35a6a18757",
      "contractAddress": null,
      "l1BaseFeeScalar": "0x8dd",
      "l1BlobBaseFee": "0x1",
      "l1BlobBaseFeeScalar": "0x101c12",
      "l1Fee": "0x9a64f5ada",
      "l1GasPrice": "0x2a87380b6",
      "l1GasUsed": "0x640"
    },
    {
      "status": "0x1",
      "cumulativeGasUsed": "0x17e3b06",
      "logs": [
        {
          "address": "0x4200000000000000000000000000000000000006",
          "topics": [
            "0xe1fffcc4923d04b559f4d29a8bfc6cda04eb5b0d3c460751c2402c5c5cc9109c",
            "0x000000000000000000000000881e3a65b4d4a04dd529061dd0071cf975f58bcd"
          ],
          "data": "0x0000000000000000000000000000000000000000000000000000351eb580e5af",
          "blockHash": "0x70f190fb25dc59d472743f2d2b07448367413d7b3dc26f6e5db1e44139a1a906",
          "blockNumber": "0x11545ec",
          "transactionHash": "0x46996118c8a594ed49f40564e4c73b1f018b4662badb39d0397bd190157dee7a",
          "transactionIndex": "0x7f",
          "logIndex": "0x197",
          "removed": false
        },
        {
          "address": "0x4200000000000000000000000000000000000006",
          "topics": [
            "0xddf252ad1be2c89b69c2b068fc378daa952ba7f163c4a11628f55a4df523b3ef",
            "0x000000000000000000000000881e3a65b4d4a04dd529061dd0071cf975f58bcd",
            "0x0000000000000000000000001e5ca70d1e7a1b26061125738a880bbea42feb21"
          ],
          "data": "0x0000000000000000000000000000000000000000000000000000351eb580e5af",
          "blockHash": "0x70f190fb25dc59d472743f2d2b07448367413d7b3dc26f6e5db1e44139a1a906",
          "blockNumber": "0x11545ec",
          "transactionHash": "0x46996118c8a594ed49f40564e4c73b1f018b4662badb39d0397bd190157dee7a",
          "transactionIndex": "0x7f",
          "logIndex": "0x198",
          "removed": false
        },
        {
          "address": "0x1e5ca70d1e7a1b26061125738a880bbea42feb21",
          "topics": [
            "0xd0c3c799bf9e2639de44391e7f524d229b2b55f5b1ea94b2bf7da42f7243dddd"
          ],
          "data": "0x0000000000000000000000000000000000000000000000000000000000000020000000000000000000000000000000000000000000000000dda641cfe44aff82000000000000000000000000f5b298825b38da0f5825e339f24f2e35a6a187570000000000000000000000003877bba809b6d6e04ff53cfd6a08bea93c980949000000000000000000000000000000000000000000000000000000000000cd120000000000000000000000000000000000000000000000000000000000030d400000000000000000000000000000000000000000000000000000000000000000000000000000000000000000000000000000000000000000000000000000000400000000000000000000000042000000000000000000000000000000000000060000000000000000000000000000000000000000000000000000351eb580e5af00000000000000000000000000000000000000000000000000000000000001a000000000000000000000000000000000000000000000000000000000000001e00000000000000000000000000000000000000000000000000000000000000200c05026bd8657c2cb004cdcb1693b08f0a20b6ec76145a4ad8bf8389e30b0b3250000000000000000000000000000000000000000000000000000000000000004455259cb0000000000000000000000000000000000000000000000000000000000000000000000000000000000000000000000000000000000000000000000000000000000000000000000000000000000000000000000000000000000000000",
          "blockHash": "0x70f190fb25dc59d472743f2d2b07448367413d7b3dc26f6e5db1e44139a1a906",
          "blockNumber": "0x11545ec",
          "transactionHash": "0x46996118c8a594ed49f40564e4c73b1f018b4662badb39d0397bd190157dee7a",
          "transactionIndex": "0x7f",
          "logIndex": "0x199",
          "removed": false
        },
        {
          "address": "0xf5b298825b38da0f5825e339f24f2e35a6a18757",
          "topics": [
            "0xfe0c05d003ba88355b6dd6175a086c514d08b0f3706bf0dbc6fd9f9e767e8495"
          ],
          "data": "0x00000000000000000000000000000000000000000000000044ae84d8e9a37444c05026bd8657c2cb004cdcb1693b08f0a20b6ec76145a4ad8bf8389e30b0b325",
          "blockHash": "0x70f190fb25dc59d472743f2d2b07448367413d7b3dc26f6e5db1e44139a1a906",
          "blockNumber": "0x11545ec",
          "transactionHash": "0x46996118c8a594ed49f40564e4c73b1f018b4662badb39d0397bd190157dee7a",
          "transactionIndex": "0x7f",
          "logIndex": "0x19a",
          "removed": false
        }
      ],
      "logsBloom": "0x0000000000000000002000000000000000012000000000000004000000000000000200000000000000000010000000000000000000000000000000000000000000000000000000000000000c000000000000000000000000000000008000000000800000000000000000000000000000000000000600000000000011000000000000000000000000000000000000000000000001002000020000000000000000000000000000000402800000000000000000000000000000000100000000000000000002000000000000000000000000000000000000000000000000000000000000000000000000000000001008000004000000000004400000000000000000",
      "type": "0x2",
      "transactionHash": "0x46996118c8a594ed49f40564e4c73b1f018b4662badb39d0397bd190157dee7a",
      "transactionIndex": "0x7f",
      "blockHash": "0x70f190fb25dc59d472743f2d2b07448367413d7b3dc26f6e5db1e44139a1a906",
      "blockNumber": "0x11545ec",
      "gasUsed": "0x2a0c3",
      "effectiveGasPrice": "0x11cb7d7",
      "from": "0x3bf51792b901a5f81b6bd3321bf9c3862d23abb8",
      "to": "0xf5b298825b38da0f5825e339f24f2e35a6a18757",
      "contractAddress": null,
      "l1BaseFeeScalar": "0x8dd",
      "l1BlobBaseFee": "0x1",
      "l1BlobBaseFeeScalar": "0x101c12",
      "l1Fee": "0x9a64f5ada",
      "l1GasPrice": "0x2a87380b6",
      "l1GasUsed": "0x640"
    },
    {
      "status": "0x1",
      "cumulativeGasUsed": "0x180dbc9",
      "logs": [
        {
          "address": "0x4200000000000000000000000000000000000006",
          "topics": [
            "0xe1fffcc4923d04b559f4d29a8bfc6cda04eb5b0d3c460751c2402c5c5cc9109c",
            "0x000000000000000000000000881e3a65b4d4a04dd529061dd0071cf975f58bcd"
          ],
          "data": "0x0000000000000000000000000000000000000000000000000000322c5be4893b",
          "blockHash": "0x70f190fb25dc59d472743f2d2b07448367413d7b3dc26f6e5db1e44139a1a906",
          "blockNumber": "0x11545ec",
          "transactionHash": "0xf266fad3a48ae5c7819069879d4b7c610817dafa0dd618cd6d05bce6f734037e",
          "transactionIndex": "0x80",
          "logIndex": "0x19b",
          "removed": false
        },
        {
          "address": "0x4200000000000000000000000000000000000006",
          "topics": [
            "0xddf252ad1be2c89b69c2b068fc378daa952ba7f163c4a11628f55a4df523b3ef",
            "0x000000000000000000000000881e3a65b4d4a04dd529061dd0071cf975f58bcd",
            "0x000000000000000000000000d952feacdd5919cc5e9454b53bf45d4e73dd6457"
          ],
          "data": "0x0000000000000000000000000000000000000000000000000000322c5be4893b",
          "blockHash": "0x70f190fb25dc59d472743f2d2b07448367413d7b3dc26f6e5db1e44139a1a906",
          "blockNumber": "0x11545ec",
          "transactionHash": "0xf266fad3a48ae5c7819069879d4b7c610817dafa0dd618cd6d05bce6f734037e",
          "transactionIndex": "0x80",
          "logIndex": "0x19c",
          "removed": false
        },
        {
          "address": "0xd952feacdd5919cc5e9454b53bf45d4e73dd6457",
          "topics": [
            "0xd0c3c799bf9e2639de44391e7f524d229b2b55f5b1ea94b2bf7da42f7243dddd"
          ],
          "data": "0x0000000000000000000000000000000000000000000000000000000000000020000000000000000000000000000000000000000000000000dda641cfe44aff82000000000000000000000000f5b298825b38da0f5825e339f24f2e35a6a18757000000000000000000000000d18a967cb98e2f249c156d6cda1ae6d675a46a4f0000000000000000000000000000000000000000000000000000000000006a530000000000000000000000000000000000000000000000000000000000030d400000000000000000000000000000000000000000000000000000000000000000000000000000000000000000000000000000000000000000000000000000000300000000000000000000000042000000000000000000000000000000000000060000000000000000000000000000000000000000000000000000322c5be4893b00000000000000000000000000000000000000000000000000000000000001a000000000000000000000000000000000000000000000000000000000000001e00000000000000000000000000000000000000000000000000000000000000200ce7d7c8a3604193c86fbd803d85e4de0c713212ff8fcdc79482d66f287ad0c820000000000000000000000000000000000000000000000000000000000000004455259cb0000000000000000000000000000000000000000000000000000000000000000000000000000000000000000000000000000000000000000000000000000000000000000000000000000000000000000000000000000000000000000",
          "blockHash": "0x70f190fb25dc59d472743f2d2b07448367413d7b3dc26f6e5db1e44139a1a906",
          "blockNumber": "0x11545ec",
          "transactionHash": "0xf266fad3a48ae5c7819069879d4b7c610817dafa0dd618cd6d05bce6f734037e",
          "transactionIndex": "0x80",
          "logIndex": "0x19d",
          "removed": false
        },
        {
          "address": "0xf5b298825b38da0f5825e339f24f2e35a6a18757",
          "topics": [
            "0xfe0c05d003ba88355b6dd6175a086c514d08b0f3706bf0dbc6fd9f9e767e8495"
          ],
          "data": "0x00000000000000000000000000000000000000000000000033d343f77863cab8ce7d7c8a3604193c86fbd803d85e4de0c713212ff8fcdc79482d66f287ad0c82",
          "blockHash": "0x70f190fb25dc59d472743f2d2b07448367413d7b3dc26f6e5db1e44139a1a906",
          "blockNumber": "0x11545ec",
          "transactionHash": "0xf266fad3a48ae5c7819069879d4b7c610817dafa0dd618cd6d05bce6f734037e",
          "transactionIndex": "0x80",
          "logIndex": "0x19e",
          "removed": false
        }
      ],
      "logsBloom": "0x00000000000000000000008000000000000100000000000000040000000000000002000000000000000000100000000200000000000000000000400000000000000000000000000000000008000000000000000000000000000000008000000000000000000000000100000000000000000000000400000000000011000000000000000000000000000000000000000000000001002000020000000000000000000000000000000402800000000000000000000000000000000100000000000000000002000000000000000000000000000000400000000000000000002000000000000000000000000000000008000004000000000004400000000000000000",
      "type": "0x2",
      "transactionHash": "0xf266fad3a48ae5c7819069879d4b7c610817dafa0dd618cd6d05bce6f734037e",
      "transactionIndex": "0x80",
      "blockHash": "0x70f190fb25dc59d472743f2d2b07448367413d7b3dc26f6e5db1e44139a1a906",
      "blockNumber": "0x11545ec",
      "gasUsed": "0x2a0c3",
      "effectiveGasPrice": "0x11cb7d7",
      "from": "0x3bf51792b901a5f81b6bd3321bf9c3862d23abb8",
      "to": "0xf5b298825b38da0f5825e339f24f2e35a6a18757",
      "contractAddress": null,
      "l1BaseFeeScalar": "0x8dd",
      "l1BlobBaseFee": "0x1",
      "l1BlobBaseFeeScalar": "0x101c12",
      "l1Fee": "0x9a64f5ada",
      "l1GasPrice": "0x2a87380b6",
      "l1GasUsed": "0x640"
    }
  ],
  "libraries": [],
  "pending": [],
  "returns": {},
  "timestamp": 1723132096,
  "chain": 8453,
  "commit": "49ab14b"
}