{
  "transactions": [
    {
      "hash": "0x2b2f43635796a5f00b83f75c788b1ced758197b33f3cf8b135d977c78743f45b",
      "transactionType": "CALL",
      "contractName": null,
      "contractAddress": "0xf5b298825b38da0f5825e339f24f2e35a6a18757",
      "function": "setGasOracleAddress(uint64,address)",
      "arguments": [
        "4949039107694359620",
        "0x7C2EACcFe817F43c66253fa2d9DabA319856204b"
      ],
      "transaction": {
        "from": "0x3bf51792b901a5f81b6bd3321bf9c3862d23abb8",
        "to": "0xf5b298825b38da0f5825e339f24f2e35a6a18757",
        "gas": "0x9bcf",
        "value": "0x0",
        "input": "0x30dd7e0500000000000000000000000000000000000000000000000044ae84d8e9a374440000000000000000000000007c2eaccfe817f43c66253fa2d9daba319856204b",
        "nonce": "0x14",
        "chainId": "0x2105"
      },
      "additionalContracts": [],
      "isFixedGasLimit": false
    },
    {
      "hash": "0x8ccae8fc8b2f03da500c6cec8b16c2801ec216fc5eb7c6b240f85b499ff33e4b",
      "transactionType": "CALL",
      "contractName": null,
      "contractAddress": "0xf5b298825b38da0f5825e339f24f2e35a6a18757",
      "function": "setGasOracleAddress(uint64,address)",
      "arguments": [
        "3734403246176062136",
        "0xf6a36246F50ae3e87C5BF0bD98c4DBC66905ea6B"
      ],
      "transaction": {
        "from": "0x3bf51792b901a5f81b6bd3321bf9c3862d23abb8",
        "to": "0xf5b298825b38da0f5825e339f24f2e35a6a18757",
        "gas": "0x9bcf",
        "value": "0x0",
        "input": "0x30dd7e0500000000000000000000000000000000000000000000000033d343f77863cab8000000000000000000000000f6a36246f50ae3e87c5bf0bd98c4dbc66905ea6b",
        "nonce": "0x15",
        "chainId": "0x2105"
      },
      "additionalContracts": [],
      "isFixedGasLimit": false
    },
    {
      "hash": "0x6b133ac4db2ccfdcd38740094a6f2966bf226b0116b93cb73af72a44dc64084d",
      "transactionType": "CALL",
      "contractName": null,
      "contractAddress": "0xf5b298825b38da0f5825e339f24f2e35a6a18757",
      "function": "getOldAndRequestNewGasPrice(uint64)",
      "arguments": [
        "4949039107694359620"
      ],
      "transaction": {
        "from": "0x3bf51792b901a5f81b6bd3321bf9c3862d23abb8",
        "to": "0xf5b298825b38da0f5825e339f24f2e35a6a18757",
        "gas": "0x3d7e9",
        "value": "0x5ef8992ff565",
        "input": "0xb289f41c00000000000000000000000000000000000000000000000044ae84d8e9a37444",
        "nonce": "0x16",
        "chainId": "0x2105"
      },
      "additionalContracts": [],
      "isFixedGasLimit": false
    },
    {
      "hash": "0x741e4b17573694216be4bc4bb5dc0b3cf765d998cc04faac25f19b70b8c6c772",
      "transactionType": "CALL",
      "contractName": null,
      "contractAddress": "0xf5b298825b38da0f5825e339f24f2e35a6a18757",
      "function": "getOldAndRequestNewGasPrice(uint64)",
      "arguments": [
        "3734403246176062136"
      ],
      "transaction": {
        "from": "0x3bf51792b901a5f81b6bd3321bf9c3862d23abb8",
        "to": "0xf5b298825b38da0f5825e339f24f2e35a6a18757",
        "gas": "0x3d7e9",
        "value": "0x4cd40c0e5e9b",
        "input": "0xb289f41c00000000000000000000000000000000000000000000000033d343f77863cab8",
        "nonce": "0x17",
        "chainId": "0x2105"
      },
      "additionalContracts": [],
      "isFixedGasLimit": false
    }
  ],
  "receipts": [
    {
      "status": "0x1",
      "cumulativeGasUsed": "0xc3a173",
      "logs": [],
      "logsBloom": "0x00000000000000000000000000000000000000000000000000000000000000000000000000000000000000000000000000000000000000000000000000000000000000000000000000000000000000000000000000000000000000000000000000000000000000000000000000000000000000000000000000000000000000000000000000000000000000000000000000000000000000000000000000000000000000000000000000000000000000000000000000000000000000000000000000000000000000000000000000000000000000000000000000000000000000000000000000000000000000000000000000000000000000000000000000000000",
      "type": "0x2",
      "transactionHash": "0x2b2f43635796a5f00b83f75c788b1ced758197b33f3cf8b135d977c78743f45b",
      "transactionIndex": "0x46",
      "blockHash": "0xefdfc2c5b0f4165a40adba3baec10c1aa27bdb83fa32152fe14e824a770cd8b6",
      "blockNumber": "0x1154cb2",
      "gasUsed": "0x6a8a",
      "effectiveGasPrice": "0x18b70f1",
      "from": "0x3bf51792b901a5f81b6bd3321bf9c3862d23abb8",
      "to": "0xf5b298825b38da0f5825e339f24f2e35a6a18757",
      "contractAddress": null,
      "l1BaseFeeScalar": "0x8dd",
      "l1BlobBaseFee": "0x1",
      "l1BlobBaseFeeScalar": "0x101c12",
      "l1Fee": "0xfba709f2a",
      "l1GasPrice": "0x4551702c6",
      "l1GasUsed": "0x640"
    },
    {
      "status": "0x1",
      "cumulativeGasUsed": "0xc40bfd",
      "logs": [],
      "logsBloom": "0x00000000000000000000000000000000000000000000000000000000000000000000000000000000000000000000000000000000000000000000000000000000000000000000000000000000000000000000000000000000000000000000000000000000000000000000000000000000000000000000000000000000000000000000000000000000000000000000000000000000000000000000000000000000000000000000000000000000000000000000000000000000000000000000000000000000000000000000000000000000000000000000000000000000000000000000000000000000000000000000000000000000000000000000000000000000",
      "type": "0x2",
      "transactionHash": "0x8ccae8fc8b2f03da500c6cec8b16c2801ec216fc5eb7c6b240f85b499ff33e4b",
      "transactionIndex": "0x47",
      "blockHash": "0xefdfc2c5b0f4165a40adba3baec10c1aa27bdb83fa32152fe14e824a770cd8b6",
      "blockNumber": "0x1154cb2",
      "gasUsed": "0x6a8a",
      "effectiveGasPrice": "0x18b70f1",
      "from": "0x3bf51792b901a5f81b6bd3321bf9c3862d23abb8",
      "to": "0xf5b298825b38da0f5825e339f24f2e35a6a18757",
      "contractAddress": null,
      "l1BaseFeeScalar": "0x8dd",
      "l1BlobBaseFee": "0x1",
      "l1BlobBaseFeeScalar": "0x101c12",
      "l1Fee": "0xfba709f2a",
      "l1GasPrice": "0x4551702c6",
      "l1GasUsed": "0x640"
    },
    {
      "status": "0x1",
      "cumulativeGasUsed": "0xc6c7f2",
      "logs": [
        {
          "address": "0x4200000000000000000000000000000000000006",
          "topics": [
            "0xe1fffcc4923d04b559f4d29a8bfc6cda04eb5b0d3c460751c2402c5c5cc9109c",
            "0x000000000000000000000000881e3a65b4d4a04dd529061dd0071cf975f58bcd"
          ],
          "data": "0x00000000000000000000000000000000000000000000000000004e4a8b60b095",
          "blockHash": "0xefdfc2c5b0f4165a40adba3baec10c1aa27bdb83fa32152fe14e824a770cd8b6",
          "blockNumber": "0x1154cb2",
          "transactionHash": "0x6b133ac4db2ccfdcd38740094a6f2966bf226b0116b93cb73af72a44dc64084d",
          "transactionIndex": "0x48",
          "logIndex": "0xef",
          "removed": false
        },
        {
          "address": "0x4200000000000000000000000000000000000006",
          "topics": [
            "0xddf252ad1be2c89b69c2b068fc378daa952ba7f163c4a11628f55a4df523b3ef",
            "0x000000000000000000000000881e3a65b4d4a04dd529061dd0071cf975f58bcd",
            "0x0000000000000000000000001e5ca70d1e7a1b26061125738a880bbea42feb21"
          ],
          "data": "0x00000000000000000000000000000000000000000000000000004e4a8b60b095",
          "blockHash": "0xefdfc2c5b0f4165a40adba3baec10c1aa27bdb83fa32152fe14e824a770cd8b6",
          "blockNumber": "0x1154cb2",
          "transactionHash": "0x6b133ac4db2ccfdcd38740094a6f2966bf226b0116b93cb73af72a44dc64084d",
          "transactionIndex": "0x48",
          "logIndex": "0xf0",
          "removed": false
        },
        {
          "address": "0x1e5ca70d1e7a1b26061125738a880bbea42feb21",
          "topics": [
            "0xd0c3c799bf9e2639de44391e7f524d229b2b55f5b1ea94b2bf7da42f7243dddd"
          ],
          "data": "0x0000000000000000000000000000000000000000000000000000000000000020000000000000000000000000000000000000000000000000dda641cfe44aff82000000000000000000000000f5b298825b38da0f5825e339f24f2e35a6a187570000000000000000000000007c2eaccfe817f43c66253fa2d9daba319856204b000000000000000000000000000000000000000000000000000000000000cd1a0000000000000000000000000000000000000000000000000000000000030d4000000000000000000000000000000000000000000000000000000000000000000000000000000000000000000000000000000000000000000000000000000006000000000000000000000000420000000000000000000000000000000000000600000000000000000000000000000000000000000000000000004e4a8b60b09500000000000000000000000000000000000000000000000000000000000001a000000000000000000000000000000000000000000000000000000000000001e0000000000000000000000000000000000000000000000000000000000000020002471e711a9107142e38ce356ce50ce0ddc5098596396801de95cc9b60b868dd0000000000000000000000000000000000000000000000000000000000000004455259cb0000000000000000000000000000000000000000000000000000000000000000000000000000000000000000000000000000000000000000000000000000000000000000000000000000000000000000000000000000000000000000",
          "blockHash": "0xefdfc2c5b0f4165a40adba3baec10c1aa27bdb83fa32152fe14e824a770cd8b6",
          "blockNumber": "0x1154cb2",
          "transactionHash": "0x6b133ac4db2ccfdcd38740094a6f2966bf226b0116b93cb73af72a44dc64084d",
          "transactionIndex": "0x48",
          "logIndex": "0xf1",
          "removed": false
        },
        {
          "address": "0xf5b298825b38da0f5825e339f24f2e35a6a18757",
          "topics": [
            "0xfe0c05d003ba88355b6dd6175a086c514d08b0f3706bf0dbc6fd9f9e767e8495"
          ],
          "data": "0x00000000000000000000000000000000000000000000000044ae84d8e9a3744402471e711a9107142e38ce356ce50ce0ddc5098596396801de95cc9b60b868dd",
          "blockHash": "0xefdfc2c5b0f4165a40adba3baec10c1aa27bdb83fa32152fe14e824a770cd8b6",
          "blockNumber": "0x1154cb2",
          "transactionHash": "0x6b133ac4db2ccfdcd38740094a6f2966bf226b0116b93cb73af72a44dc64084d",
          "transactionIndex": "0x48",
          "logIndex": "0xf2",
          "removed": false
        }
      ],
      "logsBloom": "0x0000000000000000002000000000000000012000000000000004000000000000000200000000000000000010000000000000000000000000000000000000000000000000000000000000000c000000000000000000000000000000008000000000800000000000000000000000000000000000000600000000000011000000000000000000000000000000000000000000000001002000020000000000000000000000000000000402800000000000000000000000000000000100000000000000000002000000000000000000000000000000000000000000000000000000000000000000000000000000001008000004000000000004400000000000000000",
      "type": "0x2",
      "transactionHash": "0x6b133ac4db2ccfdcd38740094a6f2966bf226b0116b93cb73af72a44dc64084d",
      "transactionIndex": "0x48",
      "blockHash": "0xefdfc2c5b0f4165a40adba3baec10c1aa27bdb83fa32152fe14e824a770cd8b6",
      "blockNumber": "0x1154cb2",
      "gasUsed": "0x2bbf5",
      "effectiveGasPrice": "0x18b70f1",
      "from": "0x3bf51792b901a5f81b6bd3321bf9c3862d23abb8",
      "to": "0xf5b298825b38da0f5825e339f24f2e35a6a18757",
      "contractAddress": null,
      "l1BaseFeeScalar": "0x8dd",
      "l1BlobBaseFee": "0x1",
      "l1BlobBaseFeeScalar": "0x101c12",
      "l1Fee": "0xfba709f2a",
      "l1GasPrice": "0x4551702c6",
      "l1GasUsed": "0x640"
    },
    {
      "status": "0x1",
      "cumulativeGasUsed": "0xc983e7",
      "logs": [
        {
          "address": "0x4200000000000000000000000000000000000006",
          "topics": [
            "0xe1fffcc4923d04b559f4d29a8bfc6cda04eb5b0d3c460751c2402c5c5cc9109c",
            "0x000000000000000000000000881e3a65b4d4a04dd529061dd0071cf975f58bcd"
          ],
          "data": "0x000000000000000000000000000000000000000000000000000037b10185898a",
          "blockHash": "0xefdfc2c5b0f4165a40adba3baec10c1aa27bdb83fa32152fe14e824a770cd8b6",
          "blockNumber": "0x1154cb2",
          "transactionHash": "0x741e4b17573694216be4bc4bb5dc0b3cf765d998cc04faac25f19b70b8c6c772",
          "transactionIndex": "0x49",
          "logIndex": "0xf3",
          "removed": false
        },
        {
          "address": "0x4200000000000000000000000000000000000006",
          "topics": [
            "0xddf252ad1be2c89b69c2b068fc378daa952ba7f163c4a11628f55a4df523b3ef",
            "0x000000000000000000000000881e3a65b4d4a04dd529061dd0071cf975f58bcd",
            "0x000000000000000000000000d952feacdd5919cc5e9454b53bf45d4e73dd6457"
          ],
          "data": "0x000000000000000000000000000000000000000000000000000037b10185898a",
          "blockHash": "0xefdfc2c5b0f4165a40adba3baec10c1aa27bdb83fa32152fe14e824a770cd8b6",
          "blockNumber": "0x1154cb2",
          "transactionHash": "0x741e4b17573694216be4bc4bb5dc0b3cf765d998cc04faac25f19b70b8c6c772",
          "transactionIndex": "0x49",
          "logIndex": "0xf4",
          "removed": false
        },
        {
          "address": "0xd952feacdd5919cc5e9454b53bf45d4e73dd6457",
          "topics": [
            "0xd0c3c799bf9e2639de44391e7f524d229b2b55f5b1ea94b2bf7da42f7243dddd"
          ],
          "data": "0x0000000000000000000000000000000000000000000000000000000000000020000000000000000000000000000000000000000000000000dda641cfe44aff82000000000000000000000000f5b298825b38da0f5825e339f24f2e35a6a18757000000000000000000000000f6a36246f50ae3e87c5bf0bd98c4dbc66905ea6b0000000000000000000000000000000000000000000000000000000000006a5a0000000000000000000000000000000000000000000000000000000000030d40000000000000000000000000000000000000000000000000000000000000000000000000000000000000000000000000000000000000000000000000000000050000000000000000000000004200000000000000000000000000000000000006000000000000000000000000000000000000000000000000000037b10185898a00000000000000000000000000000000000000000000000000000000000001a000000000000000000000000000000000000000000000000000000000000001e000000000000000000000000000000000000000000000000000000000000002000eb9714f84001ef7c561087a0b84bc3adf7b59b395969efc04ba8a41940ce7a20000000000000000000000000000000000000000000000000000000000000004455259cb0000000000000000000000000000000000000000000000000000000000000000000000000000000000000000000000000000000000000000000000000000000000000000000000000000000000000000000000000000000000000000",
          "blockHash": "0xefdfc2c5b0f4165a40adba3baec10c1aa27bdb83fa32152fe14e824a770cd8b6",
          "blockNumber": "0x1154cb2",
          "transactionHash": "0x741e4b17573694216be4bc4bb5dc0b3cf765d998cc04faac25f19b70b8c6c772",
          "transactionIndex": "0x49",
          "logIndex": "0xf5",
          "removed": false
        },
        {
          "address": "0xf5b298825b38da0f5825e339f24f2e35a6a18757",
          "topics": [
            "0xfe0c05d003ba88355b6dd6175a086c514d08b0f3706bf0dbc6fd9f9e767e8495"
          ],
          "data": "0x00000000000000000000000000000000000000000000000033d343f77863cab80eb9714f84001ef7c561087a0b84bc3adf7b59b395969efc04ba8a41940ce7a2",
          "blockHash": "0xefdfc2c5b0f4165a40adba3baec10c1aa27bdb83fa32152fe14e824a770cd8b6",
          "blockNumber": "0x1154cb2",
          "transactionHash": "0x741e4b17573694216be4bc4bb5dc0b3cf765d998cc04faac25f19b70b8c6c772",
          "transactionIndex": "0x49",
          "logIndex": "0xf6",
          "removed": false
        }
      ],
      "logsBloom": "0x00000000000000000000008000000000000100000000000000040000000000000002000000000000000000100000000200000000000000000000400000000000000000000000000000000008000000000000000000000000000000008000000000000000000000000100000000000000000000000400000000000011000000000000000000000000000000000000000000000001002000020000000000000000000000000000000402800000000000000000000000000000000100000000000000000002000000000000000000000000000000400000000000000000002000000000000000000000000000000008000004000000000004400000000000000000",
      "type": "0x2",
      "transactionHash": "0x741e4b17573694216be4bc4bb5dc0b3cf765d998cc04faac25f19b70b8c6c772",
      "transactionIndex": "0x49",
      "blockHash": "0xefdfc2c5b0f4165a40adba3baec10c1aa27bdb83fa32152fe14e824a770cd8b6",
      "blockNumber": "0x1154cb2",
      "gasUsed": "0x2bbf5",
      "effectiveGasPrice": "0x18b70f1",
      "from": "0x3bf51792b901a5f81b6bd3321bf9c3862d23abb8",
      "to": "0xf5b298825b38da0f5825e339f24f2e35a6a18757",
      "contractAddress": null,
      "l1BaseFeeScalar": "0x8dd",
      "l1BlobBaseFee": "0x1",
      "l1BlobBaseFeeScalar": "0x101c12",
      "l1Fee": "0xfba709f2a",
      "l1GasPrice": "0x4551702c6",
      "l1GasUsed": "0x640"
    }
  ],
  "libraries": [],
  "pending": [],
  "returns": {},
  "timestamp": 1723135579,
  "chain": 8453,
  "commit": "932bc7f"
}