{
  "transactions": [
    {
      "hash": "0x54e312540a587474391c77a08678534c8525614fbec38f3ac7f1d36a783aaf08",
      "transactionType": "CALL",
      "contractName": null,
      "contractAddress": "0xf5b298825b38da0f5825e339f24f2e35a6a18757",
      "function": "setGasOracleAddress(uint64,address)",
      "arguments": [
        "4949039107694359620",
        "0x1410032621Daa7f188dbdc22021292d3F101846a"
      ],
      "transaction": {
        "from": "0x3bf51792b901a5f81b6bd3321bf9c3862d23abb8",
        "to": "0xf5b298825b38da0f5825e339f24f2e35a6a18757",
        "gas": "0x9bcf",
        "value": "0x0",
        "input": "0x30dd7e0500000000000000000000000000000000000000000000000044ae84d8e9a374440000000000000000000000001410032621daa7f188dbdc22021292d3f101846a",
        "nonce": "0xf",
        "chainId": "0x2105"
      },
      "additionalContracts": [],
      "isFixedGasLimit": false
    },
    {
      "hash": "0x2b1a66885c511114ecf87737beb59c9bafdc45636303e10f3b6f864783354e03",
      "transactionType": "CALL",
      "contractName": null,
      "contractAddress": "0xf5b298825b38da0f5825e339f24f2e35a6a18757",
      "function": "setGasOracleAddress(uint64,address)",
      "arguments": [
        "3734403246176062136",
        "0xF5B298825B38DA0F5825e339f24F2E35A6A18757"
      ],
      "transaction": {
        "from": "0x3bf51792b901a5f81b6bd3321bf9c3862d23abb8",
        "to": "0xf5b298825b38da0f5825e339f24f2e35a6a18757",
        "gas": "0x9bcf",
        "value": "0x0",
        "input": "0x30dd7e0500000000000000000000000000000000000000000000000033d343f77863cab8000000000000000000000000f5b298825b38da0f5825e339f24f2e35a6a18757",
        "nonce": "0x10",
        "chainId": "0x2105"
      },
      "additionalContracts": [],
      "isFixedGasLimit": false
    },
    {
      "hash": "0x937e06683e135c1088d30208b2883bf5fdbf4a806a00fc3f7f2845c3b7b31ef5",
      "transactionType": "CALL",
      "contractName": null,
      "contractAddress": "0xf5b298825b38da0f5825e339f24f2e35a6a18757",
      "function": "getOldAndRequestNewGasPrice(uint64)",
      "arguments": [
        "4949039107694359620"
      ],
      "transaction": {
        "from": "0x3bf51792b901a5f81b6bd3321bf9c3862d23abb8",
        "to": "0xf5b298825b38da0f5825e339f24f2e35a6a18757",
        "gas": "0x3d7e9",
        "value": "0x3774dffdf52d",
        "input": "0xb289f41c00000000000000000000000000000000000000000000000044ae84d8e9a37444",
        "nonce": "0x11",
        "chainId": "0x2105"
      },
      "additionalContracts": [],
      "isFixedGasLimit": false
    },
    {
      "hash": "0x0199ecff0e54d0040f85868e5059b4bad6a224eb4de053cead33b30fbad8835c",
      "transactionType": "CALL",
      "contractName": null,
      "contractAddress": "0xf5b298825b38da0f5825e339f24f2e35a6a18757",
      "function": "getOldAndRequestNewGasPrice(uint64)",
      "arguments": [
        "3734403246176062136"
      ],
      "transaction": {
        "from": "0x3bf51792b901a5f81b6bd3321bf9c3862d23abb8",
        "to": "0xf5b298825b38da0f5825e339f24f2e35a6a18757",
        "gas": "0x3d7e9",
        "value": "0x322c5be4893b",
        "input": "0xb289f41c00000000000000000000000000000000000000000000000033d343f77863cab8",
        "nonce": "0x12",
        "chainId": "0x2105"
      },
      "additionalContracts": [],
      "isFixedGasLimit": false
    }
  ],
  "receipts": [
    {
      "status": "0x1",
      "cumulativeGasUsed": "0xc57c0e",
      "logs": [],
      "logsBloom": "0x00000000000000000000000000000000000000000000000000000000000000000000000000000000000000000000000000000000000000000000000000000000000000000000000000000000000000000000000000000000000000000000000000000000000000000000000000000000000000000000000000000000000000000000000000000000000000000000000000000000000000000000000000000000000000000000000000000000000000000000000000000000000000000000000000000000000000000000000000000000000000000000000000000000000000000000000000000000000000000000000000000000000000000000000000000000",
      "type": "0x2",
      "transactionHash": "0x54e312540a587474391c77a08678534c8525614fbec38f3ac7f1d36a783aaf08",
      "transactionIndex": "0x4a",
      "blockHash": "0x82d73709886f6e975168e88020b08c76678842baf93ecdb0815f16b933761e41",
      "blockNumber": "0x1154695",
      "gasUsed": "0x6a8a",
      "effectiveGasPrice": "0x11a8dc1",
      "from": "0x3bf51792b901a5f81b6bd3321bf9c3862d23abb8",
      "to": "0xf5b298825b38da0f5825e339f24f2e35a6a18757",
      "contractAddress": null,
      "l1BaseFeeScalar": "0x8dd",
      "l1BlobBaseFee": "0x1",
      "l1BlobBaseFeeScalar": "0x101c12",
      "l1Fee": "0x95f67a53f",
      "l1GasPrice": "0x294eb9534",
      "l1GasUsed": "0x640"
    },
    {
      "status": "0x1",
      "cumulativeGasUsed": "0xc5e698",
      "logs": [],
      "logsBloom": "0x00000000000000000000000000000000000000000000000000000000000000000000000000000000000000000000000000000000000000000000000000000000000000000000000000000000000000000000000000000000000000000000000000000000000000000000000000000000000000000000000000000000000000000000000000000000000000000000000000000000000000000000000000000000000000000000000000000000000000000000000000000000000000000000000000000000000000000000000000000000000000000000000000000000000000000000000000000000000000000000000000000000000000000000000000000000",
      "type": "0x2",
      "transactionHash": "0x2b1a66885c511114ecf87737beb59c9bafdc45636303e10f3b6f864783354e03",
      "transactionIndex": "0x4b",
      "blockHash": "0x82d73709886f6e975168e88020b08c76678842baf93ecdb0815f16b933761e41",
      "blockNumber": "0x1154695",
      "gasUsed": "0x6a8a",
      "effectiveGasPrice": "0x11a8dc1",
      "from": "0x3bf51792b901a5f81b6bd3321bf9c3862d23abb8",
      "to": "0xf5b298825b38da0f5825e339f24f2e35a6a18757",
      "contractAddress": null,
      "l1BaseFeeScalar": "0x8dd",
      "l1BlobBaseFee": "0x1",
      "l1BlobBaseFeeScalar": "0x101c12",
      "l1Fee": "0x95f67a53f",
      "l1GasPrice": "0x294eb9534",
      "l1GasUsed": "0x640"
    },
    {
      "status": "0x1",
      "cumulativeGasUsed": "0xc8875b",
      "logs": [
        {
          "address": "0x4200000000000000000000000000000000000006",
          "topics": [
            "0xe1fffcc4923d04b559f4d29a8bfc6cda04eb5b0d3c460751c2402c5c5cc9109c",
            "0x000000000000000000000000881e3a65b4d4a04dd529061dd0071cf975f58bcd"
          ],
          "data": "0x00000000000000000000000000000000000000000000000000003774dffdf52d",
          "blockHash": "0x82d73709886f6e975168e88020b08c76678842baf93ecdb0815f16b933761e41",
          "blockNumber": "0x1154695",
          "transactionHash": "0x937e06683e135c1088d30208b2883bf5fdbf4a806a00fc3f7f2845c3b7b31ef5",
          "transactionIndex": "0x4c",
          "logIndex": "0x9f",
          "removed": false
        },
        {
          "address": "0x4200000000000000000000000000000000000006",
          "topics": [
            "0xddf252ad1be2c89b69c2b068fc378daa952ba7f163c4a11628f55a4df523b3ef",
            "0x000000000000000000000000881e3a65b4d4a04dd529061dd0071cf975f58bcd",
            "0x0000000000000000000000001e5ca70d1e7a1b26061125738a880bbea42feb21"
          ],
          "data": "0x00000000000000000000000000000000000000000000000000003774dffdf52d",
          "blockHash": "0x82d73709886f6e975168e88020b08c76678842baf93ecdb0815f16b933761e41",
          "blockNumber": "0x1154695",
          "transactionHash": "0x937e06683e135c1088d30208b2883bf5fdbf4a806a00fc3f7f2845c3b7b31ef5",
          "transactionIndex": "0x4c",
          "logIndex": "0xa0",
          "removed": false
        },
        {
          "address": "0x1e5ca70d1e7a1b26061125738a880bbea42feb21",
          "topics": [
            "0xd0c3c799bf9e2639de44391e7f524d229b2b55f5b1ea94b2bf7da42f7243dddd"
          ],
          "data": "0x0000000000000000000000000000000000000000000000000000000000000020000000000000000000000000000000000000000000000000dda641cfe44aff82000000000000000000000000f5b298825b38da0f5825e339f24f2e35a6a187570000000000000000000000001410032621daa7f188dbdc22021292d3f101846a000000000000000000000000000000000000000000000000000000000000cd130000000000000000000000000000000000000000000000000000000000030d4000000000000000000000000000000000000000000000000000000000000000000000000000000000000000000000000000000000000000000000000000000005000000000000000000000000420000000000000000000000000000000000000600000000000000000000000000000000000000000000000000003774dffdf52d00000000000000000000000000000000000000000000000000000000000001a000000000000000000000000000000000000000000000000000000000000001e00000000000000000000000000000000000000000000000000000000000000200c8d103c841dfd7e5095046577b1e153ebf7caeb06938f70d9efb9f27cd389d250000000000000000000000000000000000000000000000000000000000000004455259cb0000000000000000000000000000000000000000000000000000000000000000000000000000000000000000000000000000000000000000000000000000000000000000000000000000000000000000000000000000000000000000",
          "blockHash": "0x82d73709886f6e975168e88020b08c76678842baf93ecdb0815f16b933761e41",
          "blockNumber": "0x1154695",
          "transactionHash": "0x937e06683e135c1088d30208b2883bf5fdbf4a806a00fc3f7f2845c3b7b31ef5",
          "transactionIndex": "0x4c",
          "logIndex": "0xa1",
          "removed": false
        },
        {
          "address": "0xf5b298825b38da0f5825e339f24f2e35a6a18757",
          "topics": [
            "0xfe0c05d003ba88355b6dd6175a086c514d08b0f3706bf0dbc6fd9f9e767e8495"
          ],
          "data": "0x00000000000000000000000000000000000000000000000044ae84d8e9a37444c8d103c841dfd7e5095046577b1e153ebf7caeb06938f70d9efb9f27cd389d25",
          "blockHash": "0x82d73709886f6e975168e88020b08c76678842baf93ecdb0815f16b933761e41",
          "blockNumber": "0x1154695",
          "transactionHash": "0x937e06683e135c1088d30208b2883bf5fdbf4a806a00fc3f7f2845c3b7b31ef5",
          "transactionIndex": "0x4c",
          "logIndex": "0xa2",
          "removed": false
        }
      ],
      "logsBloom": "0x0000000000000000002000000000000000012000000000000004000000000000000200000000000000000010000000000000000000000000000000000000000000000000000000000000000c000000000000000000000000000000008000000000800000000000000000000000000000000000000600000000000011000000000000000000000000000000000000000000000001002000020000000000000000000000000000000402800000000000000000000000000000000100000000000000000002000000000000000000000000000000000000000000000000000000000000000000000000000000001008000004000000000004400000000000000000",
      "type": "0x2",
      "transactionHash": "0x937e06683e135c1088d30208b2883bf5fdbf4a806a00fc3f7f2845c3b7b31ef5",
      "transactionIndex": "0x4c",
      "blockHash": "0x82d73709886f6e975168e88020b08c76678842baf93ecdb0815f16b933761e41",
      "blockNumber": "0x1154695",
      "gasUsed": "0x2a0c3",
      "effectiveGasPrice": "0x11a8dc1",
      "from": "0x3bf51792b901a5f81b6bd3321bf9c3862d23abb8",
      "to": "0xf5b298825b38da0f5825e339f24f2e35a6a18757",
      "contractAddress": null,
      "l1BaseFeeScalar": "0x8dd",
      "l1BlobBaseFee": "0x1",
      "l1BlobBaseFeeScalar": "0x101c12",
      "l1Fee": "0x95f67a53f",
      "l1GasPrice": "0x294eb9534",
      "l1GasUsed": "0x640"
    },
    {
      "status": "0x1",
      "cumulativeGasUsed": "0xcb281e",
      "logs": [
        {
          "address": "0x4200000000000000000000000000000000000006",
          "topics": [
            "0xe1fffcc4923d04b559f4d29a8bfc6cda04eb5b0d3c460751c2402c5c5cc9109c",
            "0x000000000000000000000000881e3a65b4d4a04dd529061dd0071cf975f58bcd"
          ],
          "data": "0x0000000000000000000000000000000000000000000000000000322c5be4893b",
          "blockHash": "0x82d73709886f6e975168e88020b08c76678842baf93ecdb0815f16b933761e41",
          "blockNumber": "0x1154695",
          "transactionHash": "0x0199ecff0e54d0040f85868e5059b4bad6a224eb4de053cead33b30fbad8835c",
          "transactionIndex": "0x4d",
          "logIndex": "0xa3",
          "removed": false
        },
        {
          "address": "0x4200000000000000000000000000000000000006",
          "topics": [
            "0xddf252ad1be2c89b69c2b068fc378daa952ba7f163c4a11628f55a4df523b3ef",
            "0x000000000000000000000000881e3a65b4d4a04dd529061dd0071cf975f58bcd",
            "0x000000000000000000000000d952feacdd5919cc5e9454b53bf45d4e73dd6457"
          ],
          "data": "0x0000000000000000000000000000000000000000000000000000322c5be4893b",
          "blockHash": "0x82d73709886f6e975168e88020b08c76678842baf93ecdb0815f16b933761e41",
          "blockNumber": "0x1154695",
          "transactionHash": "0x0199ecff0e54d0040f85868e5059b4bad6a224eb4de053cead33b30fbad8835c",
          "transactionIndex": "0x4d",
          "logIndex": "0xa4",
          "removed": false
        },
        {
          "address": "0xd952feacdd5919cc5e9454b53bf45d4e73dd6457",
          "topics": [
            "0xd0c3c799bf9e2639de44391e7f524d229b2b55f5b1ea94b2bf7da42f7243dddd"
          ],
          "data": "0x0000000000000000000000000000000000000000000000000000000000000020000000000000000000000000000000000000000000000000dda641cfe44aff82000000000000000000000000f5b298825b38da0f5825e339f24f2e35a6a18757000000000000000000000000f5b298825b38da0f5825e339f24f2e35a6a187570000000000000000000000000000000000000000000000000000000000006a550000000000000000000000000000000000000000000000000000000000030d400000000000000000000000000000000000000000000000000000000000000000000000000000000000000000000000000000000000000000000000000000000400000000000000000000000042000000000000000000000000000000000000060000000000000000000000000000000000000000000000000000322c5be4893b00000000000000000000000000000000000000000000000000000000000001a000000000000000000000000000000000000000000000000000000000000001e00000000000000000000000000000000000000000000000000000000000000200cc9a439e0d30cb901f8701e9e79def1bdb3f08c1d9601ef00c4ec3bc9a4fdd110000000000000000000000000000000000000000000000000000000000000004455259cb0000000000000000000000000000000000000000000000000000000000000000000000000000000000000000000000000000000000000000000000000000000000000000000000000000000000000000000000000000000000000000",
          "blockHash": "0x82d73709886f6e975168e88020b08c76678842baf93ecdb0815f16b933761e41",
          "blockNumber": "0x1154695",
          "transactionHash": "0x0199ecff0e54d0040f85868e5059b4bad6a224eb4de053cead33b30fbad8835c",
          "transactionIndex": "0x4d",
          "logIndex": "0xa5",
          "removed": false
        },
        {
          "address": "0xf5b298825b38da0f5825e339f24f2e35a6a18757",
          "topics": [
            "0xfe0c05d003ba88355b6dd6175a086c514d08b0f3706bf0dbc6fd9f9e767e8495"
          ],
          "data": "0x00000000000000000000000000000000000000000000000033d343f77863cab8cc9a439e0d30cb901f8701e9e79def1bdb3f08c1d9601ef00c4ec3bc9a4fdd11",
          "blockHash": "0x82d73709886f6e975168e88020b08c76678842baf93ecdb0815f16b933761e41",
          "blockNumber": "0x1154695",
          "transactionHash": "0x0199ecff0e54d0040f85868e5059b4bad6a224eb4de053cead33b30fbad8835c",
          "transactionIndex": "0x4d",
          "logIndex": "0xa6",
          "removed": false
        }
      ],
      "logsBloom": "0x00000000000000000000008000000000000100000000000000040000000000000002000000000000000000100000000200000000000000000000400000000000000000000000000000000008000000000000000000000000000000008000000000000000000000000100000000000000000000000400000000000011000000000000000000000000000000000000000000000001002000020000000000000000000000000000000402800000000000000000000000000000000100000000000000000002000000000000000000000000000000400000000000000000002000000000000000000000000000000008000004000000000004400000000000000000",
      "type": "0x2",
      "transactionHash": "0x0199ecff0e54d0040f85868e5059b4bad6a224eb4de053cead33b30fbad8835c",
      "transactionIndex": "0x4d",
      "blockHash": "0x82d73709886f6e975168e88020b08c76678842baf93ecdb0815f16b933761e41",
      "blockNumber": "0x1154695",
      "gasUsed": "0x2a0c3",
      "effectiveGasPrice": "0x11a8dc1",
      "from": "0x3bf51792b901a5f81b6bd3321bf9c3862d23abb8",
      "to": "0xf5b298825b38da0f5825e339f24f2e35a6a18757",
      "contractAddress": null,
      "l1BaseFeeScalar": "0x8dd",
      "l1BlobBaseFee": "0x1",
      "l1BlobBaseFeeScalar": "0x101c12",
      "l1Fee": "0x95f67a53f",
      "l1GasPrice": "0x294eb9534",
      "l1GasUsed": "0x640"
    }
  ],
  "libraries": [],
  "pending": [],
  "returns": {},
  "timestamp": 1723132436,
  "chain": 8453,
  "commit": "49ab14b"
}