{
  "transactions": [
    {
      "hash": "0x87d157775e232234ba7bd345797c8037eb5ae499abca11e560fe8ff5f65d2236",
      "transactionType": "CALL",
      "contractName": null,
      "contractAddress": "0xf5b298825b38da0f5825e339f24f2e35a6a18757",
      "function": "getOldAndRequestNewGasPrice(uint64)",
      "arguments": [
        "4949039107694359620"
      ],
      "transaction": {
        "from": "0x3bf51792b901a5f81b6bd3321bf9c3862d23abb8",
        "to": "0xf5b298825b38da0f5825e339f24f2e35a6a18757",
        "gas": "0x3fdab",
        "value": "0x6d71e305c8b9",
        "input": "0xb289f41c00000000000000000000000000000000000000000000000044ae84d8e9a37444",
        "nonce": "0x5",
        "chainId": "0x2105"
      },
      "additionalContracts": [],
      "isFixedGasLimit": false
    },
    {
      "hash": "0xc5119f1f34fca39c123ba70a3bea82a046652c8448b017d12fb72cfef19435d7",
      "transactionType": "CALL",
      "contractName": null,
      "contractAddress": "0xf5b298825b38da0f5825e339f24f2e35a6a18757",
      "function": "getOldAndRequestNewGasPrice(uint64)",
      "arguments": [
        "3734403246176062136"
      ],
      "transaction": {
        "from": "0x3bf51792b901a5f81b6bd3321bf9c3862d23abb8",
        "to": "0xf5b298825b38da0f5825e339f24f2e35a6a18757",
        "gas": "0x3fdab",
        "value": "0x2c3621f1c5fd",
        "input": "0xb289f41c00000000000000000000000000000000000000000000000033d343f77863cab8",
        "nonce": "0x6",
        "chainId": "0x2105"
      },
      "additionalContracts": [],
      "isFixedGasLimit": false
    }
  ],
  "receipts": [
    {
      "status": "0x1",
      "cumulativeGasUsed": "0x14745a7",
      "logs": [
        {
          "address": "0x4200000000000000000000000000000000000006",
          "topics": [
            "0xe1fffcc4923d04b559f4d29a8bfc6cda04eb5b0d3c460751c2402c5c5cc9109c",
            "0x000000000000000000000000881e3a65b4d4a04dd529061dd0071cf975f58bcd"
          ],
          "data": "0x00000000000000000000000000000000000000000000000000006d71e305c8b9",
          "blockHash": "0x36a0b097e47481752f90ae19a1e9d230f429d76ab5584aa1a60db947910b371d",
          "blockNumber": "0x1153855",
          "transactionHash": "0x87d157775e232234ba7bd345797c8037eb5ae499abca11e560fe8ff5f65d2236",
          "transactionIndex": "0x4b",
          "logIndex": "0x133",
          "removed": false
        },
        {
          "address": "0x4200000000000000000000000000000000000006",
          "topics": [
            "0xddf252ad1be2c89b69c2b068fc378daa952ba7f163c4a11628f55a4df523b3ef",
            "0x000000000000000000000000881e3a65b4d4a04dd529061dd0071cf975f58bcd",
            "0x0000000000000000000000001e5ca70d1e7a1b26061125738a880bbea42feb21"
          ],
          "data": "0x00000000000000000000000000000000000000000000000000006d71e305c8b9",
          "blockHash": "0x36a0b097e47481752f90ae19a1e9d230f429d76ab5584aa1a60db947910b371d",
          "blockNumber": "0x1153855",
          "transactionHash": "0x87d157775e232234ba7bd345797c8037eb5ae499abca11e560fe8ff5f65d2236",
          "transactionIndex": "0x4b",
          "logIndex": "0x134",
          "removed": false
        },
        {
          "address": "0x1e5ca70d1e7a1b26061125738a880bbea42feb21",
          "topics": [
            "0xd0c3c799bf9e2639de44391e7f524d229b2b55f5b1ea94b2bf7da42f7243dddd"
          ],
          "data": "0x0000000000000000000000000000000000000000000000000000000000000020000000000000000000000000000000000000000000000000dda641cfe44aff82000000000000000000000000f5b298825b38da0f5825e339f24f2e35a6a187570000000000000000000000004ec5b3e934000c184e6c3dda2baeea5e9141ccc3000000000000000000000000000000000000000000000000000000000000cd090000000000000000000000000000000000000000000000000000000000030d4000000000000000000000000000000000000000000000000000000000000000000000000000000000000000000000000000000000000000000000000000000001000000000000000000000000420000000000000000000000000000000000000600000000000000000000000000000000000000000000000000006d71e305c8b900000000000000000000000000000000000000000000000000000000000001a000000000000000000000000000000000000000000000000000000000000001e000000000000000000000000000000000000000000000000000000000000002007c3116acf06dd82d268e5cf638f9374f1bd6dc0a7dca5c9d507020c00a6daf630000000000000000000000000000000000000000000000000000000000000004455259cb0000000000000000000000000000000000000000000000000000000000000000000000000000000000000000000000000000000000000000000000000000000000000000000000000000000000000000000000000000000000000000",
          "blockHash": "0x36a0b097e47481752f90ae19a1e9d230f429d76ab5584aa1a60db947910b371d",
          "blockNumber": "0x1153855",
          "transactionHash": "0x87d157775e232234ba7bd345797c8037eb5ae499abca11e560fe8ff5f65d2236",
          "transactionIndex": "0x4b",
          "logIndex": "0x135",
          "removed": false
        },
        {
          "address": "0xf5b298825b38da0f5825e339f24f2e35a6a18757",
          "topics": [
            "0xfe0c05d003ba88355b6dd6175a086c514d08b0f3706bf0dbc6fd9f9e767e8495"
          ],
          "data": "0x00000000000000000000000000000000000000000000000044ae84d8e9a374447c3116acf06dd82d268e5cf638f9374f1bd6dc0a7dca5c9d507020c00a6daf63",
          "blockHash": "0x36a0b097e47481752f90ae19a1e9d230f429d76ab5584aa1a60db947910b371d",
          "blockNumber": "0x1153855",
          "transactionHash": "0x87d157775e232234ba7bd345797c8037eb5ae499abca11e560fe8ff5f65d2236",
          "transactionIndex": "0x4b",
          "logIndex": "0x136",
          "removed": false
        }
      ],
      "logsBloom": "0x0000000000000000002000000000000000012000000000000004000000000000000200000000000000000010000000000000000000000000000000000000000000000000000000000000000c000000000000000000000000000000008000000000800000000000000000000000000000000000000600000000000011000000000000000000000000000000000000000000000001002000020000000000000000000000000000000402800000000000000000000000000000000100000000000000000002000000000000000000000000000000000000000000000000000000000000000000000000000000001008000004000000000004400000000000000000",
      "type": "0x2",
      "transactionHash": "0x87d157775e232234ba7bd345797c8037eb5ae499abca11e560fe8ff5f65d2236",
      "transactionIndex": "0x4b",
      "blockHash": "0x36a0b097e47481752f90ae19a1e9d230f429d76ab5584aa1a60db947910b371d",
      "blockNumber": "0x1153855",
      "gasUsed": "0x2e3ac",
      "effectiveGasPrice": "0x1ae3783",
      "from": "0x3bf51792b901a5f81b6bd3321bf9c3862d23abb8",
      "to": "0xf5b298825b38da0f5825e339f24f2e35a6a18757",
      "contractAddress": null,
      "l1BaseFeeScalar": "0x8dd",
      "l1BlobBaseFee": "0x1",
      "l1BlobBaseFeeScalar": "0x101c12",
      "l1Fee": "0xad26e3e8e",
      "l1GasPrice": "0x2fb1eb47d",
      "l1GasUsed": "0x640"
    },
    {
      "status": "0x1",
      "cumulativeGasUsed": "0x14a2953",
      "logs": [
        {
          "address": "0x4200000000000000000000000000000000000006",
          "topics": [
            "0xe1fffcc4923d04b559f4d29a8bfc6cda04eb5b0d3c460751c2402c5c5cc9109c",
            "0x000000000000000000000000881e3a65b4d4a04dd529061dd0071cf975f58bcd"
          ],
          "data": "0x00000000000000000000000000000000000000000000000000002c3621f1c5fd",
          "blockHash": "0x36a0b097e47481752f90ae19a1e9d230f429d76ab5584aa1a60db947910b371d",
          "blockNumber": "0x1153855",
          "transactionHash": "0xc5119f1f34fca39c123ba70a3bea82a046652c8448b017d12fb72cfef19435d7",
          "transactionIndex": "0x4c",
          "logIndex": "0x137",
          "removed": false
        },
        {
          "address": "0x4200000000000000000000000000000000000006",
          "topics": [
            "0xddf252ad1be2c89b69c2b068fc378daa952ba7f163c4a11628f55a4df523b3ef",
            "0x000000000000000000000000881e3a65b4d4a04dd529061dd0071cf975f58bcd",
            "0x000000000000000000000000d952feacdd5919cc5e9454b53bf45d4e73dd6457"
          ],
          "data": "0x00000000000000000000000000000000000000000000000000002c3621f1c5fd",
          "blockHash": "0x36a0b097e47481752f90ae19a1e9d230f429d76ab5584aa1a60db947910b371d",
          "blockNumber": "0x1153855",
          "transactionHash": "0xc5119f1f34fca39c123ba70a3bea82a046652c8448b017d12fb72cfef19435d7",
          "transactionIndex": "0x4c",
          "logIndex": "0x138",
          "removed": false
        },
        {
          "address": "0xd952feacdd5919cc5e9454b53bf45d4e73dd6457",
          "topics": [
            "0xd0c3c799bf9e2639de44391e7f524d229b2b55f5b1ea94b2bf7da42f7243dddd"
          ],
          "data": "0x0000000000000000000000000000000000000000000000000000000000000020000000000000000000000000000000000000000000000000dda641cfe44aff82000000000000000000000000f5b298825b38da0f5825e339f24f2e35a6a187570000000000000000000000007fbc0146036526ab1c7b8bcd2ba8b03253646f310000000000000000000000000000000000000000000000000000000000006a430000000000000000000000000000000000000000000000000000000000030d4000000000000000000000000000000000000000000000000000000000000000000000000000000000000000000000000000000000000000000000000000000001000000000000000000000000420000000000000000000000000000000000000600000000000000000000000000000000000000000000000000002c3621f1c5fd00000000000000000000000000000000000000000000000000000000000001a000000000000000000000000000000000000000000000000000000000000001e000000000000000000000000000000000000000000000000000000000000002003304c29b17b87352eaf938b85311716998fe16325ce3ce188f338e4d6312aa120000000000000000000000000000000000000000000000000000000000000004455259cb0000000000000000000000000000000000000000000000000000000000000000000000000000000000000000000000000000000000000000000000000000000000000000000000000000000000000000000000000000000000000000",
          "blockHash": "0x36a0b097e47481752f90ae19a1e9d230f429d76ab5584aa1a60db947910b371d",
          "blockNumber": "0x1153855",
          "transactionHash": "0xc5119f1f34fca39c123ba70a3bea82a046652c8448b017d12fb72cfef19435d7",
          "transactionIndex": "0x4c",
          "logIndex": "0x139",
          "removed": false
        },
        {
          "address": "0xf5b298825b38da0f5825e339f24f2e35a6a18757",
          "topics": [
            "0xfe0c05d003ba88355b6dd6175a086c514d08b0f3706bf0dbc6fd9f9e767e8495"
          ],
          "data": "0x00000000000000000000000000000000000000000000000033d343f77863cab83304c29b17b87352eaf938b85311716998fe16325ce3ce188f338e4d6312aa12",
          "blockHash": "0x36a0b097e47481752f90ae19a1e9d230f429d76ab5584aa1a60db947910b371d",
          "blockNumber": "0x1153855",
          "transactionHash": "0xc5119f1f34fca39c123ba70a3bea82a046652c8448b017d12fb72cfef19435d7",
          "transactionIndex": "0x4c",
          "logIndex": "0x13a",
          "removed": false
        }
      ],
      "logsBloom": "0x00000000000000000000008000000000000100000000000000040000000000000002000000000000000000100000000200000000000000000000400000000000000000000000000000000008000000000000000000000000000000008000000000000000000000000100000000000000000000000400000000000011000000000000000000000000000000000000000000000001002000020000000000000000000000000000000402800000000000000000000000000000000100000000000000000002000000000000000000000000000000400000000000000000002000000000000000000000000000000008000004000000000004400000000000000000",
      "type": "0x2",
      "transactionHash": "0xc5119f1f34fca39c123ba70a3bea82a046652c8448b017d12fb72cfef19435d7",
      "transactionIndex": "0x4c",
      "blockHash": "0x36a0b097e47481752f90ae19a1e9d230f429d76ab5584aa1a60db947910b371d",
      "blockNumber": "0x1153855",
      "gasUsed": "0x2e3ac",
      "effectiveGasPrice": "0x1ae3783",
      "from": "0x3bf51792b901a5f81b6bd3321bf9c3862d23abb8",
      "to": "0xf5b298825b38da0f5825e339f24f2e35a6a18757",
      "contractAddress": null,
      "l1BaseFeeScalar": "0x8dd",
      "l1BlobBaseFee": "0x1",
      "l1BlobBaseFeeScalar": "0x101c12",
      "l1Fee": "0xad26e3e8e",
      "l1GasPrice": "0x2fb1eb47d",
      "l1GasUsed": "0x640"
    }
  ],
  "libraries": [],
  "pending": [],
  "returns": {},
  "timestamp": 1723125140,
  "chain": 8453,
  "commit": "49ab14b"
}